{
  "_format": "hh-sol-artifact-1",
  "contractName": "DustCollector7702Wormhole",
  "sourceName": "contracts/MultiSwapWormhole7702.sol",
  "abi": [
    {
      "inputs": [
        {
          "internalType": "address",
          "name": "_router",
          "type": "address"
        },
        {
          "internalType": "address",
          "name": "_bridge",
          "type": "address"
        },
        {
          "internalType": "address",
          "name": "_core",
          "type": "address"
        },
        {
          "internalType": "address",
          "name": "_feeConfig",
          "type": "address"
        }
      ],
      "stateMutability": "nonpayable",
      "type": "constructor"
    },
    {
      "inputs": [
        {
          "internalType": "address",
          "name": "owner",
          "type": "address"
        }
      ],
      "name": "OwnableInvalidOwner",
      "type": "error"
    },
    {
      "inputs": [
        {
          "internalType": "address",
          "name": "account",
          "type": "address"
        }
      ],
      "name": "OwnableUnauthorizedAccount",
      "type": "error"
    },
    {
      "inputs": [
        {
          "internalType": "address",
          "name": "token",
          "type": "address"
        }
      ],
      "name": "SafeERC20FailedOperation",
      "type": "error"
    },
    {
      "anonymous": false,
      "inputs": [
        {
          "indexed": true,
          "internalType": "address",
          "name": "user",
          "type": "address"
        },
        {
          "indexed": true,
          "internalType": "address",
          "name": "token",
          "type": "address"
        },
        {
          "indexed": false,
          "internalType": "uint256",
          "name": "amount",
          "type": "uint256"
        },
        {
          "indexed": false,
          "internalType": "uint16",
          "name": "dstChain",
          "type": "uint16"
        },
        {
          "indexed": false,
          "internalType": "bytes32",
          "name": "recipient",
          "type": "bytes32"
        },
        {
          "indexed": false,
          "internalType": "uint64",
          "name": "seq",
          "type": "uint64"
        }
      ],
      "name": "Bridged",
      "type": "event"
    },
    {
      "anonymous": false,
      "inputs": [
        {
          "indexed": true,
          "internalType": "address",
          "name": "token",
          "type": "address"
        },
        {
          "indexed": false,
          "internalType": "uint256",
          "name": "amount",
          "type": "uint256"
        }
      ],
      "name": "FeeCollected",
      "type": "event"
    },
    {
      "anonymous": false,
      "inputs": [
        {
          "indexed": true,
          "internalType": "address",
          "name": "previousOwner",
          "type": "address"
        },
        {
          "indexed": true,
          "internalType": "address",
          "name": "newOwner",
          "type": "address"
        }
      ],
      "name": "OwnershipTransferred",
      "type": "event"
    },
    {
      "anonymous": false,
      "inputs": [
        {
          "indexed": true,
          "internalType": "address",
          "name": "user",
          "type": "address"
        },
        {
          "indexed": true,
          "internalType": "address",
          "name": "token",
          "type": "address"
        },
        {
          "indexed": false,
          "internalType": "uint256",
          "name": "amount",
          "type": "uint256"
        }
      ],
      "name": "Swapped",
      "type": "event"
    },
    {
      "inputs": [
        {
          "components": [
            {
              "internalType": "bytes",
              "name": "commands",
              "type": "bytes"
            },
            {
              "internalType": "bytes[]",
              "name": "inputs",
              "type": "bytes[]"
            },
            {
              "internalType": "uint256",
              "name": "deadline",
              "type": "uint256"
            },
            {
              "internalType": "address",
              "name": "targetToken",
              "type": "address"
            },
            {
              "internalType": "uint16",
              "name": "dstChain",
              "type": "uint16"
            },
            {
              "internalType": "bytes32",
              "name": "recipient",
              "type": "bytes32"
            },
            {
              "internalType": "uint256",
              "name": "arbiterFee",
              "type": "uint256"
            }
          ],
          "internalType": "struct DustCollector7702Wormhole.SwapParams",
          "name": "params",
          "type": "tuple"
        },
        {
          "internalType": "address[]",
          "name": "tokens",
          "type": "address[]"
        },
        {
          "internalType": "uint256[]",
          "name": "amounts",
          "type": "uint256[]"
        }
      ],
      "name": "batchCollectWithUniversalRouter7702",
      "outputs": [],
      "stateMutability": "payable",
      "type": "function"
    },
    {
      "inputs": [],
      "name": "bridge",
      "outputs": [
        {
          "internalType": "contract IWormholeBridge",
          "name": "",
          "type": "address"
        }
      ],
      "stateMutability": "view",
      "type": "function"
    },
    {
      "inputs": [],
      "name": "core",
      "outputs": [
        {
          "internalType": "contract IWormholeCore",
          "name": "",
          "type": "address"
        }
      ],
      "stateMutability": "view",
      "type": "function"
    },
    {
      "inputs": [],
      "name": "feeConfig",
      "outputs": [
        {
          "internalType": "contract IFeeConfig",
          "name": "",
          "type": "address"
        }
      ],
      "stateMutability": "view",
      "type": "function"
    },
    {
      "inputs": [],
      "name": "getCurrentFeeConfig",
      "outputs": [
        {
          "internalType": "uint256",
          "name": "bps",
          "type": "uint256"
        },
        {
          "internalType": "address",
          "name": "collector",
          "type": "address"
        }
      ],
      "stateMutability": "view",
      "type": "function"
    },
    {
      "inputs": [],
      "name": "owner",
      "outputs": [
        {
          "internalType": "address",
          "name": "",
          "type": "address"
        }
      ],
      "stateMutability": "view",
      "type": "function"
    },
    {
      "inputs": [],
      "name": "renounceOwnership",
      "outputs": [],
      "stateMutability": "nonpayable",
      "type": "function"
    },
    {
      "inputs": [],
      "name": "router",
      "outputs": [
        {
          "internalType": "contract IUniversalRouter",
          "name": "",
          "type": "address"
        }
      ],
      "stateMutability": "view",
      "type": "function"
    },
    {
      "inputs": [
        {
          "internalType": "address",
          "name": "newOwner",
          "type": "address"
        }
      ],
      "name": "transferOwnership",
      "outputs": [],
      "stateMutability": "nonpayable",
      "type": "function"
    },
    {
      "stateMutability": "payable",
      "type": "receive"
    }
  ],
  "bytecode": "0x6101006040523480156200001257600080fd5b5060405162002820380380620028208339818101604052810190620000389190620003e9565b33600073ffffffffffffffffffffffffffffffffffffffff168173ffffffffffffffffffffffffffffffffffffffff1603620000ae5760006040517f1e4fbdf7000000000000000000000000000000000000000000000000000000008152600401620000a591906200046c565b60405180910390fd5b620000bf81620002bb60201b60201c565b50600073ffffffffffffffffffffffffffffffffffffffff168473ffffffffffffffffffffffffffffffffffffffff16141580156200012b5750600073ffffffffffffffffffffffffffffffffffffffff168373ffffffffffffffffffffffffffffffffffffffff1614155b8015620001655750600073ffffffffffffffffffffffffffffffffffffffff168273ffffffffffffffffffffffffffffffffffffffff1614155b80156200019f5750600073ffffffffffffffffffffffffffffffffffffffff168173ffffffffffffffffffffffffffffffffffffffff1614155b620001e1576040517f08c379a0000000000000000000000000000000000000000000000000000000008152600401620001d890620004ea565b60405180910390fd5b8373ffffffffffffffffffffffffffffffffffffffff1660808173ffffffffffffffffffffffffffffffffffffffff16815250508273ffffffffffffffffffffffffffffffffffffffff1660a08173ffffffffffffffffffffffffffffffffffffffff16815250508173ffffffffffffffffffffffffffffffffffffffff1660c08173ffffffffffffffffffffffffffffffffffffffff16815250508073ffffffffffffffffffffffffffffffffffffffff1660e08173ffffffffffffffffffffffffffffffffffffffff1681525050505050506200050c565b60008060009054906101000a900473ffffffffffffffffffffffffffffffffffffffff169050816000806101000a81548173ffffffffffffffffffffffffffffffffffffffff021916908373ffffffffffffffffffffffffffffffffffffffff1602179055508173ffffffffffffffffffffffffffffffffffffffff168173ffffffffffffffffffffffffffffffffffffffff167f8be0079c531659141344cd1fd0a4f28419497f9722a3daafe3b4186f6b6457e060405160405180910390a35050565b600080fd5b600073ffffffffffffffffffffffffffffffffffffffff82169050919050565b6000620003b18262000384565b9050919050565b620003c381620003a4565b8114620003cf57600080fd5b50565b600081519050620003e381620003b8565b92915050565b600080600080608085870312156200040657620004056200037f565b5b60006200041687828801620003d2565b94505060206200042987828801620003d2565b93505060406200043c87828801620003d2565b92505060606200044f87828801620003d2565b91505092959194509250565b6200046681620003a4565b82525050565b60006020820190506200048360008301846200045b565b92915050565b600082825260208201905092915050565b7f7a65726f20616464720000000000000000000000000000000000000000000000600082015250565b6000620004d260098362000489565b9150620004df826200049a565b602082019050919050565b600060208201905081810360008301526200050581620004c3565b9050919050565b60805160a05160c05160e05161228d62000593600039600081816101f70152818161021e015281816102af01528181610a120152610aa501526000818161050701528181610de70152610ec70152600081816104e301528181610f5b01528181610fb701526110ba0152600081816105b1015281816107310152610869015261228d6000f3fe60806040526004361061008a5760003560e01c80638da5cb5b116100595780638da5cb5b14610120578063e78cea921461014b578063f2f4eb2614610176578063f2fde38b146101a1578063f887ea40146101ca57610091565b80631e5eb1d01461009657806341f57728146100c1578063715018a6146100ed578063886201691461010457610091565b3661009157005b600080fd5b3480156100a257600080fd5b506100ab6101f5565b6040516100b89190611501565b60405180910390f35b3480156100cd57600080fd5b506100d6610219565b6040516100e4929190611556565b60405180910390f35b3480156100f957600080fd5b50610102610342565b005b61011e60048036038101906101199190611668565b610356565b005b34801561012c57600080fd5b506101356104b8565b6040516101429190611719565b60405180910390f35b34801561015757600080fd5b506101606104e1565b60405161016d9190611755565b60405180910390f35b34801561018257600080fd5b5061018b610505565b6040516101989190611791565b60405180910390f35b3480156101ad57600080fd5b506101c860048036038101906101c391906117d8565b610529565b005b3480156101d657600080fd5b506101df6105af565b6040516101ec9190611826565b60405180910390f35b7f000000000000000000000000000000000000000000000000000000000000000081565b6000807f000000000000000000000000000000000000000000000000000000000000000073ffffffffffffffffffffffffffffffffffffffff166324a9d8536040518163ffffffff1660e01b8152600401602060405180830381865afa158015610287573d6000803e3d6000fd5b505050506040513d601f19601f820116820180604052508101906102ab919061186d565b91507f000000000000000000000000000000000000000000000000000000000000000073ffffffffffffffffffffffffffffffffffffffff1663c415b95c6040518163ffffffff1660e01b8152600401602060405180830381865afa158015610318573d6000803e3d6000fd5b505050506040513d601f19601f8201168201806040525081019061033c91906118af565b90509091565b61034a6105d3565b610354600061065a565b565b3073ffffffffffffffffffffffffffffffffffffffff163373ffffffffffffffffffffffffffffffffffffffff16146103c4576040517f08c379a00000000000000000000000000000000000000000000000000000000081526004016103bb90611939565b60405180910390fd5b600073ffffffffffffffffffffffffffffffffffffffff168560600160208101906103ef91906117d8565b73ffffffffffffffffffffffffffffffffffffffff1603610445576040517f08c379a000000000000000000000000000000000000000000000000000000000815260040161043c906119a5565b60405180910390fd5b81819050848490501461048d576040517f08c379a000000000000000000000000000000000000000000000000000000000815260040161048490611a11565b60405180910390fd5b6104998484848461071e565b60006104a4866107c9565b90506104b08682610a0e565b505050505050565b60008060009054906101000a900473ffffffffffffffffffffffffffffffffffffffff16905090565b7f000000000000000000000000000000000000000000000000000000000000000081565b7f000000000000000000000000000000000000000000000000000000000000000081565b6105316105d3565b600073ffffffffffffffffffffffffffffffffffffffff168173ffffffffffffffffffffffffffffffffffffffff16036105a35760006040517f1e4fbdf700000000000000000000000000000000000000000000000000000000815260040161059a9190611719565b60405180910390fd5b6105ac8161065a565b50565b7f000000000000000000000000000000000000000000000000000000000000000081565b6105db610d11565b73ffffffffffffffffffffffffffffffffffffffff166105f96104b8565b73ffffffffffffffffffffffffffffffffffffffff16146106585761061c610d11565b6040517f118cdaa700000000000000000000000000000000000000000000000000000000815260040161064f9190611719565b60405180910390fd5b565b60008060009054906101000a900473ffffffffffffffffffffffffffffffffffffffff169050816000806101000a81548173ffffffffffffffffffffffffffffffffffffffff021916908373ffffffffffffffffffffffffffffffffffffffff1602179055508173ffffffffffffffffffffffffffffffffffffffff168173ffffffffffffffffffffffffffffffffffffffff167f8be0079c531659141344cd1fd0a4f28419497f9722a3daafe3b4186f6b6457e060405160405180910390a35050565b60005b848490508110156107c2576107b77f000000000000000000000000000000000000000000000000000000000000000084848481811061076357610762611a31565b5b9050602002013587878581811061077d5761077c611a31565b5b905060200201602081019061079291906117d8565b73ffffffffffffffffffffffffffffffffffffffff16610d199092919063ffffffff16565b806001019050610721565b5050505050565b6000806107d583610d98565b905060008360600160208101906107ec91906117d8565b73ffffffffffffffffffffffffffffffffffffffff166370a08231306040518263ffffffff1660e01b81526004016108249190611719565b602060405180830381865afa158015610841573d6000803e3d6000fd5b505050506040513d601f19601f82011682018060405250810190610865919061186d565b90507f000000000000000000000000000000000000000000000000000000000000000073ffffffffffffffffffffffffffffffffffffffff16633593564c83346108af9190611a8f565b8680600001906108bf9190611ad2565b8880602001906108cf9190611b35565b8a604001356040518763ffffffff1660e01b81526004016108f4959493929190611d5a565b6000604051808303818588803b15801561090d57600080fd5b505af1158015610921573d6000803e3d6000fd5b5050505050600084606001602081019061093b91906117d8565b73ffffffffffffffffffffffffffffffffffffffff166370a08231306040518263ffffffff1660e01b81526004016109739190611719565b602060405180830381865afa158015610990573d6000803e3d6000fd5b505050506040513d601f19601f820116820180604052508101906109b4919061186d565b90508181116109f8576040517f08c379a00000000000000000000000000000000000000000000000000000000081526004016109ef90611def565b60405180910390fd5b8181610a049190611a8f565b9350505050919050565b60007f000000000000000000000000000000000000000000000000000000000000000073ffffffffffffffffffffffffffffffffffffffff166324a9d8536040518163ffffffff1660e01b8152600401602060405180830381865afa158015610a7b573d6000803e3d6000fd5b505050506040513d601f19601f82011682018060405250810190610a9f919061186d565b905060007f000000000000000000000000000000000000000000000000000000000000000073ffffffffffffffffffffffffffffffffffffffff1663c415b95c6040518163ffffffff1660e01b8152600401602060405180830381865afa158015610b0e573d6000803e3d6000fd5b505050506040513d601f19601f82011682018060405250810190610b3291906118af565b905060006127108385610b459190611e0f565b610b4f9190611e80565b905060008185610b5f9190611a8f565b9050600082118015610b9e5750600073ffffffffffffffffffffffffffffffffffffffff168373ffffffffffffffffffffffffffffffffffffffff1614155b15610c4157610be08383886060016020810190610bbb91906117d8565b73ffffffffffffffffffffffffffffffffffffffff16610d199092919063ffffffff16565b856060016020810190610bf391906117d8565b73ffffffffffffffffffffffffffffffffffffffff167f06c5efeff5c320943d265dc4e5f1af95ad523555ce0c1957e367dda5514572df83604051610c389190611eb1565b60405180910390a25b6000866080016020810190610c569190611f06565b61ffff16148015610c6d57506000801b8660a00135145b8015610c7d575060008660c00135145b15610cfe57856060016020810190610c9591906117d8565b73ffffffffffffffffffffffffffffffffffffffff163073ffffffffffffffffffffffffffffffffffffffff167f2e7f8a64aa3240292c0adfa332e1e8945dd31589fcb0bce2721fa21c69b1390f83604051610cf19190611eb1565b60405180910390a3610d09565b610d088682610ec3565b5b505050505050565b600033905090565b610d93838473ffffffffffffffffffffffffffffffffffffffff1663a9059cbb8585604051602401610d4c929190611f33565b604051602081830303815290604052915060e01b6020820180517bffffffffffffffffffffffffffffffffffffffffffffffffffffffff83818316178352505050506111d5565b505050565b600080826080016020810190610dae9190611f06565b61ffff16148015610dc557506000801b8260a00135145b8015610dd5575060008260c00135145b15610de35760009050610ebe565b60007f000000000000000000000000000000000000000000000000000000000000000073ffffffffffffffffffffffffffffffffffffffff16631a90a2196040518163ffffffff1660e01b8152600401602060405180830381865afa158015610e50573d6000803e3d6000fd5b505050506040513d601f19601f82011682018060405250810190610e74919061186d565b905080341015610eb9576040517f08c379a0000000000000000000000000000000000000000000000000000000008152600401610eb090611fa8565b60405180910390fd5b809150505b919050565b60007f000000000000000000000000000000000000000000000000000000000000000073ffffffffffffffffffffffffffffffffffffffff16631a90a2196040518163ffffffff1660e01b8152600401602060405180830381865afa158015610f30573d6000803e3d6000fd5b505050506040513d601f19601f82011682018060405250810190610f54919061186d565b9050610fb37f000000000000000000000000000000000000000000000000000000000000000083856060016020810190610f8e91906117d8565b73ffffffffffffffffffffffffffffffffffffffff166112779092919063ffffffff16565b60007f000000000000000000000000000000000000000000000000000000000000000073ffffffffffffffffffffffffffffffffffffffff16630f5287b08386606001602081019061100591906117d8565b868860800160208101906110199190611f06565b8960a001358a60c00135426040518863ffffffff1660e01b81526004016110459695949392919061200f565b60206040518083038185885af1158015611063573d6000803e3d6000fd5b50505050506040513d601f19601f8201168201806040525081019061108891906120b0565b905083606001602081019061109d91906117d8565b73ffffffffffffffffffffffffffffffffffffffff1663095ea7b37f000000000000000000000000000000000000000000000000000000000000000060006040518363ffffffff1660e01b81526004016110f8929190612118565b6020604051808303816000875af1158015611117573d6000803e3d6000fd5b505050506040513d601f19601f8201168201806040525081019061113b9190612179565b5083606001602081019061114f91906117d8565b73ffffffffffffffffffffffffffffffffffffffff163073ffffffffffffffffffffffffffffffffffffffff167f50ae9999ebe0549e066a4e693df8680b3b8f8de8c915be969ccabcfa9c50f998858760800160208101906111b19190611f06565b8860a00135866040516111c794939291906121b5565b60405180910390a350505050565b600080602060008451602086016000885af1806111f8576040513d6000823e3d81fd5b3d92506000519150506000821461121357600181141561122f565b60008473ffffffffffffffffffffffffffffffffffffffff163b145b1561127157836040517f5274afe70000000000000000000000000000000000000000000000000000000081526004016112689190611719565b60405180910390fd5b50505050565b60008373ffffffffffffffffffffffffffffffffffffffff1663dd62ed3e30856040518363ffffffff1660e01b81526004016112b49291906121fa565b602060405180830381865afa1580156112d1573d6000803e3d6000fd5b505050506040513d601f19601f820116820180604052508101906112f5919061186d565b905061130d848484846113089190612223565b611313565b50505050565b60008373ffffffffffffffffffffffffffffffffffffffff1663095ea7b38484604051602401611344929190611f33565b604051602081830303815290604052915060e01b6020820180517bffffffffffffffffffffffffffffffffffffffffffffffffffffffff838183161783525050505090506113928482611422565b61141c57611411848573ffffffffffffffffffffffffffffffffffffffff1663095ea7b38660006040516024016113ca929190612118565b604051602081830303815290604052915060e01b6020820180517bffffffffffffffffffffffffffffffffffffffffffffffffffffffff83818316178352505050506111d5565b61141b84826111d5565b5b50505050565b6000806000806020600086516020880160008a5af192503d9150600051905082801561147757506000821461145a5760018114611476565b60008673ffffffffffffffffffffffffffffffffffffffff163b115b5b935050505092915050565b600073ffffffffffffffffffffffffffffffffffffffff82169050919050565b6000819050919050565b60006114c76114c26114bd84611482565b6114a2565b611482565b9050919050565b60006114d9826114ac565b9050919050565b60006114eb826114ce565b9050919050565b6114fb816114e0565b82525050565b600060208201905061151660008301846114f2565b92915050565b6000819050919050565b61152f8161151c565b82525050565b600061154082611482565b9050919050565b61155081611535565b82525050565b600060408201905061156b6000830185611526565b6115786020830184611547565b9392505050565b600080fd5b600080fd5b600080fd5b600060e082840312156115a4576115a3611589565b5b81905092915050565b600080fd5b600080fd5b600080fd5b60008083601f8401126115d2576115d16115ad565b5b8235905067ffffffffffffffff8111156115ef576115ee6115b2565b5b60208301915083602082028301111561160b5761160a6115b7565b5b9250929050565b60008083601f840112611628576116276115ad565b5b8235905067ffffffffffffffff811115611645576116446115b2565b5b602083019150836020820283011115611661576116606115b7565b5b9250929050565b6000806000806000606086880312156116845761168361157f565b5b600086013567ffffffffffffffff8111156116a2576116a1611584565b5b6116ae8882890161158e565b955050602086013567ffffffffffffffff8111156116cf576116ce611584565b5b6116db888289016115bc565b9450945050604086013567ffffffffffffffff8111156116fe576116fd611584565b5b61170a88828901611612565b92509250509295509295909350565b600060208201905061172e6000830184611547565b92915050565b600061173f826114ce565b9050919050565b61174f81611734565b82525050565b600060208201905061176a6000830184611746565b92915050565b600061177b826114ce565b9050919050565b61178b81611770565b82525050565b60006020820190506117a66000830184611782565b92915050565b6117b581611535565b81146117c057600080fd5b50565b6000813590506117d2816117ac565b92915050565b6000602082840312156117ee576117ed61157f565b5b60006117fc848285016117c3565b91505092915050565b6000611810826114ce565b9050919050565b61182081611805565b82525050565b600060208201905061183b6000830184611817565b92915050565b61184a8161151c565b811461185557600080fd5b50565b60008151905061186781611841565b92915050565b6000602082840312156118835761188261157f565b5b600061189184828501611858565b91505092915050565b6000815190506118a9816117ac565b92915050565b6000602082840312156118c5576118c461157f565b5b60006118d38482850161189a565b91505092915050565b600082825260208201905092915050565b7f4549502d37373032206f6e6c7900000000000000000000000000000000000000600082015250565b6000611923600d836118dc565b915061192e826118ed565b602082019050919050565b6000602082019050818103600083015261195281611916565b9050919050565b7f6e6f207461726765740000000000000000000000000000000000000000000000600082015250565b600061198f6009836118dc565b915061199a82611959565b602082019050919050565b600060208201905081810360008301526119be81611982565b9050919050565b7f6c656e206d69736d617463680000000000000000000000000000000000000000600082015250565b60006119fb600c836118dc565b9150611a06826119c5565b602082019050919050565b60006020820190508181036000830152611a2a816119ee565b9050919050565b7f4e487b7100000000000000000000000000000000000000000000000000000000600052603260045260246000fd5b7f4e487b7100000000000000000000000000000000000000000000000000000000600052601160045260246000fd5b6000611a9a8261151c565b9150611aa58361151c565b9250828203905081811115611abd57611abc611a60565b5b92915050565b600080fd5b600080fd5b600080fd5b60008083356001602003843603038112611aef57611aee611ac3565b5b80840192508235915067ffffffffffffffff821115611b1157611b10611ac8565b5b602083019250600182023603831315611b2d57611b2c611acd565b5b509250929050565b60008083356001602003843603038112611b5257611b51611ac3565b5b80840192508235915067ffffffffffffffff821115611b7457611b73611ac8565b5b602083019250602082023603831315611b9057611b8f611acd565b5b509250929050565b600082825260208201905092915050565b82818337600083830152505050565b6000601f19601f8301169050919050565b6000611bd58385611b98565b9350611be2838584611ba9565b611beb83611bb8565b840190509392505050565b600082825260208201905092915050565b6000819050919050565b600082825260208201905092915050565b6000611c2e8385611c11565b9350611c3b838584611ba9565b611c4483611bb8565b840190509392505050565b6000611c5c848484611c22565b90509392505050565b600080fd5b600080fd5b600080fd5b60008083356001602003843603038112611c9157611c90611c6f565b5b83810192508235915060208301925067ffffffffffffffff821115611cb957611cb8611c65565b5b600182023603831315611ccf57611cce611c6a565b5b509250929050565b6000602082019050919050565b6000611cf08385611bf6565b935083602084028501611d0284611c07565b8060005b87811015611d48578484038952611d1d8284611c74565b611d28868284611c4f565b9550611d3384611cd7565b935060208b019a505050600181019050611d06565b50829750879450505050509392505050565b60006060820190508181036000830152611d75818789611bc9565b90508181036020830152611d8a818587611ce4565b9050611d996040830184611526565b9695505050505050565b7f6e6f206f75747075740000000000000000000000000000000000000000000000600082015250565b6000611dd96009836118dc565b9150611de482611da3565b602082019050919050565b60006020820190508181036000830152611e0881611dcc565b9050919050565b6000611e1a8261151c565b9150611e258361151c565b9250828202611e338161151c565b91508282048414831517611e4a57611e49611a60565b5b5092915050565b7f4e487b7100000000000000000000000000000000000000000000000000000000600052601260045260246000fd5b6000611e8b8261151c565b9150611e968361151c565b925082611ea657611ea5611e51565b5b828204905092915050565b6000602082019050611ec66000830184611526565b92915050565b600061ffff82169050919050565b611ee381611ecc565b8114611eee57600080fd5b50565b600081359050611f0081611eda565b92915050565b600060208284031215611f1c57611f1b61157f565b5b6000611f2a84828501611ef1565b91505092915050565b6000604082019050611f486000830185611547565b611f556020830184611526565b9392505050565b7f66656520756e646572666c6f7700000000000000000000000000000000000000600082015250565b6000611f92600d836118dc565b9150611f9d82611f5c565b602082019050919050565b60006020820190508181036000830152611fc181611f85565b9050919050565b611fd181611ecc565b82525050565b6000819050919050565b611fea81611fd7565b82525050565b600063ffffffff82169050919050565b61200981611ff0565b82525050565b600060c0820190506120246000830189611547565b6120316020830188611526565b61203e6040830187611fc8565b61204b6060830186611fe1565b6120586080830185611526565b61206560a0830184612000565b979650505050505050565b600067ffffffffffffffff82169050919050565b61208d81612070565b811461209857600080fd5b50565b6000815190506120aa81612084565b92915050565b6000602082840312156120c6576120c561157f565b5b60006120d48482850161209b565b91505092915050565b6000819050919050565b60006121026120fd6120f8846120dd565b6114a2565b61151c565b9050919050565b612112816120e7565b82525050565b600060408201905061212d6000830185611547565b61213a6020830184612109565b9392505050565b60008115159050919050565b61215681612141565b811461216157600080fd5b50565b6000815190506121738161214d565b92915050565b60006020828403121561218f5761218e61157f565b5b600061219d84828501612164565b91505092915050565b6121af81612070565b82525050565b60006080820190506121ca6000830187611526565b6121d76020830186611fc8565b6121e46040830185611fe1565b6121f160608301846121a6565b95945050505050565b600060408201905061220f6000830185611547565b61221c6020830184611547565b9392505050565b600061222e8261151c565b91506122398361151c565b925082820190508082111561225157612250611a60565b5b9291505056fea2646970667358221220b75e5fc0ce7226286d3206799521e82a0e993b1cb9cc0e321d8901ab84abe8c564736f6c63430008180033",
  "linkReferences": {},
  "deployedLinkReferences": {}
}