{
  "_format": "hh-sol-artifact-1",
  "contractName": "DustCollectorUniversalPermit2",
  "sourceName": "contracts/DustCollectorUniversalPermit2.sol",
  "abi": [
    {
      "inputs": [
        {
          "internalType": "address",
          "name": "_router",
          "type": "address"
        },
        {
          "internalType": "address",
          "name": "_bridgeContract",
          "type": "address"
        },
        {
          "internalType": "address",
          "name": "_core",
          "type": "address"
        },
        {
          "internalType": "address",
          "name": "_permit2",
          "type": "address"
        },
        {
          "internalType": "address",
          "name": "_feeCollector",
          "type": "address"
        }
      ],
      "stateMutability": "nonpayable",
      "type": "constructor"
    },
    {
      "inputs": [
        {
          "internalType": "address",
          "name": "owner",
          "type": "address"
        }
      ],
      "name": "OwnableInvalidOwner",
      "type": "error"
    },
    {
      "inputs": [
        {
          "internalType": "address",
          "name": "account",
          "type": "address"
        }
      ],
      "name": "OwnableUnauthorizedAccount",
      "type": "error"
    },
    {
      "inputs": [
        {
          "internalType": "address",
          "name": "token",
          "type": "address"
        }
      ],
      "name": "SafeERC20FailedOperation",
      "type": "error"
    },
    {
      "anonymous": false,
      "inputs": [
        {
          "indexed": true,
          "internalType": "address",
          "name": "user",
          "type": "address"
        },
        {
          "indexed": true,
          "internalType": "address",
          "name": "token",
          "type": "address"
        },
        {
          "indexed": false,
          "internalType": "uint256",
          "name": "amount",
          "type": "uint256"
        },
        {
          "indexed": false,
          "internalType": "uint16",
          "name": "dstChain",
          "type": "uint16"
        },
        {
          "indexed": false,
          "internalType": "bytes32",
          "name": "recipient",
          "type": "bytes32"
        },
        {
          "indexed": false,
          "internalType": "uint64",
          "name": "seq",
          "type": "uint64"
        }
      ],
      "name": "Bridged",
      "type": "event"
    },
    {
      "anonymous": false,
      "inputs": [
        {
          "indexed": true,
          "internalType": "address",
          "name": "token",
          "type": "address"
        },
        {
          "indexed": false,
          "internalType": "uint256",
          "name": "amount",
          "type": "uint256"
        }
      ],
      "name": "FeeCollected",
      "type": "event"
    },
    {
      "anonymous": false,
      "inputs": [
        {
          "indexed": true,
          "internalType": "address",
          "name": "previousOwner",
          "type": "address"
        },
        {
          "indexed": true,
          "internalType": "address",
          "name": "newOwner",
          "type": "address"
        }
      ],
      "name": "OwnershipTransferred",
      "type": "event"
    },
    {
      "anonymous": false,
      "inputs": [
        {
          "indexed": true,
          "internalType": "address",
          "name": "user",
          "type": "address"
        },
        {
          "indexed": true,
          "internalType": "address",
          "name": "token",
          "type": "address"
        },
        {
          "indexed": false,
          "internalType": "uint256",
          "name": "amount",
          "type": "uint256"
        }
      ],
      "name": "Swapped",
      "type": "event"
    },
    {
      "inputs": [
        {
          "components": [
            {
              "internalType": "bytes",
              "name": "commands",
              "type": "bytes"
            },
            {
              "internalType": "bytes[]",
              "name": "inputs",
              "type": "bytes[]"
            },
            {
              "internalType": "uint256",
              "name": "deadline",
              "type": "uint256"
            },
            {
              "internalType": "address",
              "name": "targetToken",
              "type": "address"
            },
            {
              "internalType": "uint16",
              "name": "dstChain",
              "type": "uint16"
            },
            {
              "internalType": "bytes32",
              "name": "recipient",
              "type": "bytes32"
            },
            {
              "internalType": "uint256",
              "name": "arbiterFee",
              "type": "uint256"
            }
          ],
          "internalType": "struct DustCollectorUniversalPermit2.SwapParams",
          "name": "params",
          "type": "tuple"
        },
        {
          "internalType": "address[]",
          "name": "pullTokens",
          "type": "address[]"
        },
        {
          "internalType": "uint256[]",
          "name": "pullAmounts",
          "type": "uint256[]"
        }
      ],
      "name": "batchCollectWithUniversalRouter",
      "outputs": [],
      "stateMutability": "payable",
      "type": "function"
    },
    {
      "inputs": [],
      "name": "bridge",
      "outputs": [
        {
          "internalType": "contract IWormholeBridge",
          "name": "",
          "type": "address"
        }
      ],
      "stateMutability": "view",
      "type": "function"
    },
    {
      "inputs": [],
      "name": "core",
      "outputs": [
        {
          "internalType": "contract IWormholeCore",
          "name": "",
          "type": "address"
        }
      ],
      "stateMutability": "view",
      "type": "function"
    },
    {
      "inputs": [],
      "name": "feeBps",
      "outputs": [
        {
          "internalType": "uint256",
          "name": "",
          "type": "uint256"
        }
      ],
      "stateMutability": "view",
      "type": "function"
    },
    {
      "inputs": [],
      "name": "feeCollector",
      "outputs": [
        {
          "internalType": "address",
          "name": "",
          "type": "address"
        }
      ],
      "stateMutability": "view",
      "type": "function"
    },
    {
      "inputs": [],
      "name": "owner",
      "outputs": [
        {
          "internalType": "address",
          "name": "",
          "type": "address"
        }
      ],
      "stateMutability": "view",
      "type": "function"
    },
    {
      "inputs": [],
      "name": "permit2",
      "outputs": [
        {
          "internalType": "contract IPermit2",
          "name": "",
          "type": "address"
        }
      ],
      "stateMutability": "view",
      "type": "function"
    },
    {
      "inputs": [],
      "name": "renounceOwnership",
      "outputs": [],
      "stateMutability": "nonpayable",
      "type": "function"
    },
    {
      "inputs": [
        {
          "internalType": "address",
          "name": "t",
          "type": "address"
        },
        {
          "internalType": "address",
          "name": "to",
          "type": "address"
        },
        {
          "internalType": "uint256",
          "name": "amt",
          "type": "uint256"
        }
      ],
      "name": "rescueERC20",
      "outputs": [],
      "stateMutability": "nonpayable",
      "type": "function"
    },
    {
      "inputs": [
        {
          "internalType": "address payable",
          "name": "to",
          "type": "address"
        },
        {
          "internalType": "uint256",
          "name": "amt",
          "type": "uint256"
        }
      ],
      "name": "rescueETH",
      "outputs": [],
      "stateMutability": "nonpayable",
      "type": "function"
    },
    {
      "inputs": [],
      "name": "router",
      "outputs": [
        {
          "internalType": "contract IUniversalRouter",
          "name": "",
          "type": "address"
        }
      ],
      "stateMutability": "view",
      "type": "function"
    },
    {
      "inputs": [
        {
          "internalType": "uint256",
          "name": "_bps",
          "type": "uint256"
        },
        {
          "internalType": "address",
          "name": "_collector",
          "type": "address"
        }
      ],
      "name": "setFee",
      "outputs": [],
      "stateMutability": "nonpayable",
      "type": "function"
    },
    {
      "inputs": [
        {
          "internalType": "address",
          "name": "newOwner",
          "type": "address"
        }
      ],
      "name": "transferOwnership",
      "outputs": [],
      "stateMutability": "nonpayable",
      "type": "function"
    },
    {
      "stateMutability": "payable",
      "type": "receive"
    }
  ],
  "bytecode": "0x610100604052601e6002553480156200001757600080fd5b5060405162002bb538038062002bb583398181016040528101906200003d91906200046a565b33600073ffffffffffffffffffffffffffffffffffffffff168173ffffffffffffffffffffffffffffffffffffffff1603620000b35760006040517f1e4fbdf7000000000000000000000000000000000000000000000000000000008152600401620000aa919062000503565b60405180910390fd5b620000c4816200033c60201b60201c565b50600073ffffffffffffffffffffffffffffffffffffffff168573ffffffffffffffffffffffffffffffffffffffff1614158015620001305750600073ffffffffffffffffffffffffffffffffffffffff168473ffffffffffffffffffffffffffffffffffffffff1614155b80156200016a5750600073ffffffffffffffffffffffffffffffffffffffff168373ffffffffffffffffffffffffffffffffffffffff1614155b8015620001a45750600073ffffffffffffffffffffffffffffffffffffffff168273ffffffffffffffffffffffffffffffffffffffff1614155b8015620001de5750600073ffffffffffffffffffffffffffffffffffffffff168173ffffffffffffffffffffffffffffffffffffffff1614155b62000220576040517f08c379a0000000000000000000000000000000000000000000000000000000008152600401620002179062000581565b60405180910390fd5b8473ffffffffffffffffffffffffffffffffffffffff1660808173ffffffffffffffffffffffffffffffffffffffff16815250508373ffffffffffffffffffffffffffffffffffffffff1660a08173ffffffffffffffffffffffffffffffffffffffff16815250508273ffffffffffffffffffffffffffffffffffffffff1660c08173ffffffffffffffffffffffffffffffffffffffff16815250508173ffffffffffffffffffffffffffffffffffffffff1660e08173ffffffffffffffffffffffffffffffffffffffff168152505080600160006101000a81548173ffffffffffffffffffffffffffffffffffffffff021916908373ffffffffffffffffffffffffffffffffffffffff1602179055505050505050620005a3565b60008060009054906101000a900473ffffffffffffffffffffffffffffffffffffffff169050816000806101000a81548173ffffffffffffffffffffffffffffffffffffffff021916908373ffffffffffffffffffffffffffffffffffffffff1602179055508173ffffffffffffffffffffffffffffffffffffffff168173ffffffffffffffffffffffffffffffffffffffff167f8be0079c531659141344cd1fd0a4f28419497f9722a3daafe3b4186f6b6457e060405160405180910390a35050565b600080fd5b600073ffffffffffffffffffffffffffffffffffffffff82169050919050565b6000620004328262000405565b9050919050565b620004448162000425565b81146200045057600080fd5b50565b600081519050620004648162000439565b92915050565b600080600080600060a0868803121562000489576200048862000400565b5b6000620004998882890162000453565b9550506020620004ac8882890162000453565b9450506040620004bf8882890162000453565b9350506060620004d28882890162000453565b9250506080620004e58882890162000453565b9150509295509295909350565b620004fd8162000425565b82525050565b60006020820190506200051a6000830184620004f2565b92915050565b600082825260208201905092915050565b7f7a65726f20616464720000000000000000000000000000000000000000000000600082015250565b60006200056960098362000520565b9150620005768262000531565b602082019050919050565b600060208201905081810360008301526200059c816200055a565b9050919050565b60805160a05160c05160e0516125a0620006156000396000818161044301526108e00152600081816106b901528181610ecd0152610fad015260008181610695015281816110410152818161109d01526111a00152600081816107630152818161091d0152610a9101526125a06000f3fe6080604052600436106100c65760003560e01c8063b2118a8d1161007f578063e78cea9211610059578063e78cea921461022c578063f2f4eb2614610257578063f2fde38b14610282578063f887ea40146102ab576100cd565b8063b2118a8d146101af578063b4f2e8b8146101d8578063c415b95c14610201576100cd565b8063099a04e5146100d257806312261ee7146100fb57806324a9d85314610126578063715018a6146101515780638da5cb5b14610168578063a7f547fa14610193576100cd565b366100cd57005b600080fd5b3480156100de57600080fd5b506100f960048036038101906100f49190611606565b6102d6565b005b34801561010757600080fd5b50610110610441565b60405161011d91906116a5565b60405180910390f35b34801561013257600080fd5b5061013b610465565b60405161014891906116cf565b60405180910390f35b34801561015d57600080fd5b5061016661046b565b005b34801561017457600080fd5b5061017d61047f565b60405161018a919061170b565b60405180910390f35b6101ad60048036038101906101a89190611805565b6104a8565b005b3480156101bb57600080fd5b506101d660048036038101906101d191906118e2565b61059c565b005b3480156101e457600080fd5b506101ff60048036038101906101fa9190611935565b6105d4565b005b34801561020d57600080fd5b5061021661066d565b604051610223919061170b565b60405180910390f35b34801561023857600080fd5b50610241610693565b60405161024e9190611996565b60405180910390f35b34801561026357600080fd5b5061026c6106b7565b60405161027991906119d2565b60405180910390f35b34801561028e57600080fd5b506102a960048036038101906102a491906119ed565b6106db565b005b3480156102b757600080fd5b506102c0610761565b6040516102cd9190611a3b565b60405180910390f35b6102de610785565b600073ffffffffffffffffffffffffffffffffffffffff168273ffffffffffffffffffffffffffffffffffffffff160361034d576040517f08c379a000000000000000000000000000000000000000000000000000000000815260040161034490611ab3565b60405180910390fd5b47811115610390576040517f08c379a000000000000000000000000000000000000000000000000000000000815260040161038790611b1f565b60405180910390fd5b60008273ffffffffffffffffffffffffffffffffffffffff16826040516103b690611b70565b60006040518083038185875af1925050503d80600081146103f3576040519150601f19603f3d011682016040523d82523d6000602084013e6103f8565b606091505b505090508061043c576040517f08c379a000000000000000000000000000000000000000000000000000000000815260040161043390611bd1565b60405180910390fd5b505050565b7f000000000000000000000000000000000000000000000000000000000000000081565b60025481565b610473610785565b61047d600061080c565b565b60008060009054906101000a900473ffffffffffffffffffffffffffffffffffffffff16905090565b600073ffffffffffffffffffffffffffffffffffffffff168560600160208101906104d391906119ed565b73ffffffffffffffffffffffffffffffffffffffff1603610529576040517f08c379a000000000000000000000000000000000000000000000000000000000815260040161052090611c3d565b60405180910390fd5b818190508484905014610571576040517f08c379a000000000000000000000000000000000000000000000000000000000815260040161056890611ca9565b60405180910390fd5b61057d848484846108d0565b6000610588866109e1565b90506105948682610bea565b505050505050565b6105a4610785565b6105cf82828573ffffffffffffffffffffffffffffffffffffffff16610df79092919063ffffffff16565b505050565b6105dc610785565b6103e8821115610621576040517f08c379a000000000000000000000000000000000000000000000000000000000815260040161061890611d15565b60405180910390fd5b8160028190555080600160006101000a81548173ffffffffffffffffffffffffffffffffffffffff021916908373ffffffffffffffffffffffffffffffffffffffff1602179055505050565b600160009054906101000a900473ffffffffffffffffffffffffffffffffffffffff1681565b7f000000000000000000000000000000000000000000000000000000000000000081565b7f000000000000000000000000000000000000000000000000000000000000000081565b6106e3610785565b600073ffffffffffffffffffffffffffffffffffffffff168173ffffffffffffffffffffffffffffffffffffffff16036107555760006040517f1e4fbdf700000000000000000000000000000000000000000000000000000000815260040161074c919061170b565b60405180910390fd5b61075e8161080c565b50565b7f000000000000000000000000000000000000000000000000000000000000000081565b61078d610e76565b73ffffffffffffffffffffffffffffffffffffffff166107ab61047f565b73ffffffffffffffffffffffffffffffffffffffff161461080a576107ce610e76565b6040517f118cdaa7000000000000000000000000000000000000000000000000000000008152600401610801919061170b565b60405180910390fd5b565b60008060009054906101000a900473ffffffffffffffffffffffffffffffffffffffff169050816000806101000a81548173ffffffffffffffffffffffffffffffffffffffff021916908373ffffffffffffffffffffffffffffffffffffffff1602179055508173ffffffffffffffffffffffffffffffffffffffff168173ffffffffffffffffffffffffffffffffffffffff167f8be0079c531659141344cd1fd0a4f28419497f9722a3daafe3b4186f6b6457e060405160405180910390a35050565b60005b848490508110156109da577f000000000000000000000000000000000000000000000000000000000000000073ffffffffffffffffffffffffffffffffffffffff166336c78516337f000000000000000000000000000000000000000000000000000000000000000086868681811061094f5761094e611d35565b5b9050602002013589898781811061096957610968611d35565b5b905060200201602081019061097e91906119ed565b6040518563ffffffff1660e01b815260040161099d9493929190611d73565b600060405180830381600087803b1580156109b757600080fd5b505af11580156109cb573d6000803e3d6000fd5b505050508060010190506108d3565b5050505050565b6000806109ed83610e7e565b9050600081346109fd9190611de7565b90506000846060016020810190610a1491906119ed565b73ffffffffffffffffffffffffffffffffffffffff166370a08231306040518263ffffffff1660e01b8152600401610a4c919061170b565b602060405180830381865afa158015610a69573d6000803e3d6000fd5b505050506040513d601f19601f82011682018060405250810190610a8d9190611e30565b90507f000000000000000000000000000000000000000000000000000000000000000073ffffffffffffffffffffffffffffffffffffffff16633593564c83878060000190610adc9190611e6c565b898060200190610aec9190611ecf565b8b604001356040518763ffffffff1660e01b8152600401610b119594939291906120f4565b6000604051808303818588803b158015610b2a57600080fd5b505af1158015610b3e573d6000803e3d6000fd5b50505050506000856060016020810190610b5891906119ed565b73ffffffffffffffffffffffffffffffffffffffff166370a08231306040518263ffffffff1660e01b8152600401610b90919061170b565b602060405180830381865afa158015610bad573d6000803e3d6000fd5b505050506040513d601f19601f82011682018060405250810190610bd19190611e30565b90508181610bdf9190611de7565b945050505050919050565b600061271060025483610bfd919061213d565b610c0791906121ae565b905060008183610c179190611de7565b90506000821115610ce257610c81600160009054906101000a900473ffffffffffffffffffffffffffffffffffffffff1683866060016020810190610c5c91906119ed565b73ffffffffffffffffffffffffffffffffffffffff16610df79092919063ffffffff16565b836060016020810190610c9491906119ed565b73ffffffffffffffffffffffffffffffffffffffff167f06c5efeff5c320943d265dc4e5f1af95ad523555ce0c1957e367dda5514572df83604051610cd991906116cf565b60405180910390a25b6000811115610df1576000846080016020810190610d009190612219565b61ffff16148015610d1757506000801b8460a00135145b8015610d27575060008460c00135145b15610de557610d693382866060016020810190610d4491906119ed565b73ffffffffffffffffffffffffffffffffffffffff16610df79092919063ffffffff16565b836060016020810190610d7c91906119ed565b73ffffffffffffffffffffffffffffffffffffffff163373ffffffffffffffffffffffffffffffffffffffff167f2e7f8a64aa3240292c0adfa332e1e8945dd31589fcb0bce2721fa21c69b1390f83604051610dd891906116cf565b60405180910390a3610df0565b610def8482610fa9565b5b5b50505050565b610e71838473ffffffffffffffffffffffffffffffffffffffff1663a9059cbb8585604051602401610e2a929190612246565b604051602081830303815290604052915060e01b6020820180517bffffffffffffffffffffffffffffffffffffffffffffffffffffffff83818316178352505050506112bb565b505050565b600033905090565b600080826080016020810190610e949190612219565b61ffff16148015610eab57506000801b8260a00135145b8015610ebb575060008260c00135145b15610ec95760009050610fa4565b60007f000000000000000000000000000000000000000000000000000000000000000073ffffffffffffffffffffffffffffffffffffffff16631a90a2196040518163ffffffff1660e01b8152600401602060405180830381865afa158015610f36573d6000803e3d6000fd5b505050506040513d601f19601f82011682018060405250810190610f5a9190611e30565b905080341015610f9f576040517f08c379a0000000000000000000000000000000000000000000000000000000008152600401610f96906122bb565b60405180910390fd5b809150505b919050565b60007f000000000000000000000000000000000000000000000000000000000000000073ffffffffffffffffffffffffffffffffffffffff16631a90a2196040518163ffffffff1660e01b8152600401602060405180830381865afa158015611016573d6000803e3d6000fd5b505050506040513d601f19601f8201168201806040525081019061103a9190611e30565b90506110997f00000000000000000000000000000000000000000000000000000000000000008385606001602081019061107491906119ed565b73ffffffffffffffffffffffffffffffffffffffff1661135d9092919063ffffffff16565b60007f000000000000000000000000000000000000000000000000000000000000000073ffffffffffffffffffffffffffffffffffffffff16630f5287b0838660600160208101906110eb91906119ed565b868860800160208101906110ff9190612219565b8960a001358a60c00135426040518863ffffffff1660e01b815260040161112b96959493929190612322565b60206040518083038185885af1158015611149573d6000803e3d6000fd5b50505050506040513d601f19601f8201168201806040525081019061116e91906123c3565b905083606001602081019061118391906119ed565b73ffffffffffffffffffffffffffffffffffffffff1663095ea7b37f000000000000000000000000000000000000000000000000000000000000000060006040518363ffffffff1660e01b81526004016111de92919061242b565b6020604051808303816000875af11580156111fd573d6000803e3d6000fd5b505050506040513d601f19601f82011682018060405250810190611221919061248c565b5083606001602081019061123591906119ed565b73ffffffffffffffffffffffffffffffffffffffff163373ffffffffffffffffffffffffffffffffffffffff167f50ae9999ebe0549e066a4e693df8680b3b8f8de8c915be969ccabcfa9c50f998858760800160208101906112979190612219565b8860a00135866040516112ad94939291906124c8565b60405180910390a350505050565b600080602060008451602086016000885af1806112de576040513d6000823e3d81fd5b3d9250600051915050600082146112f9576001811415611315565b60008473ffffffffffffffffffffffffffffffffffffffff163b145b1561135757836040517f5274afe700000000000000000000000000000000000000000000000000000000815260040161134e919061170b565b60405180910390fd5b50505050565b60008373ffffffffffffffffffffffffffffffffffffffff1663dd62ed3e30856040518363ffffffff1660e01b815260040161139a92919061250d565b602060405180830381865afa1580156113b7573d6000803e3d6000fd5b505050506040513d601f19601f820116820180604052508101906113db9190611e30565b90506113f3848484846113ee9190612536565b6113f9565b50505050565b60008373ffffffffffffffffffffffffffffffffffffffff1663095ea7b3848460405160240161142a929190612246565b604051602081830303815290604052915060e01b6020820180517bffffffffffffffffffffffffffffffffffffffffffffffffffffffff838183161783525050505090506114788482611508565b611502576114f7848573ffffffffffffffffffffffffffffffffffffffff1663095ea7b38660006040516024016114b092919061242b565b604051602081830303815290604052915060e01b6020820180517bffffffffffffffffffffffffffffffffffffffffffffffffffffffff83818316178352505050506112bb565b61150184826112bb565b5b50505050565b6000806000806020600086516020880160008a5af192503d9150600051905082801561155d575060008214611540576001811461155c565b60008673ffffffffffffffffffffffffffffffffffffffff163b115b5b935050505092915050565b600080fd5b600080fd5b600073ffffffffffffffffffffffffffffffffffffffff82169050919050565b600061159d82611572565b9050919050565b6115ad81611592565b81146115b857600080fd5b50565b6000813590506115ca816115a4565b92915050565b6000819050919050565b6115e3816115d0565b81146115ee57600080fd5b50565b600081359050611600816115da565b92915050565b6000806040838503121561161d5761161c611568565b5b600061162b858286016115bb565b925050602061163c858286016115f1565b9150509250929050565b6000819050919050565b600061166b61166661166184611572565b611646565b611572565b9050919050565b600061167d82611650565b9050919050565b600061168f82611672565b9050919050565b61169f81611684565b82525050565b60006020820190506116ba6000830184611696565b92915050565b6116c9816115d0565b82525050565b60006020820190506116e460008301846116c0565b92915050565b60006116f582611572565b9050919050565b611705816116ea565b82525050565b600060208201905061172060008301846116fc565b92915050565b600080fd5b600060e0828403121561174157611740611726565b5b81905092915050565b600080fd5b600080fd5b600080fd5b60008083601f84011261176f5761176e61174a565b5b8235905067ffffffffffffffff81111561178c5761178b61174f565b5b6020830191508360208202830111156117a8576117a7611754565b5b9250929050565b60008083601f8401126117c5576117c461174a565b5b8235905067ffffffffffffffff8111156117e2576117e161174f565b5b6020830191508360208202830111156117fe576117fd611754565b5b9250929050565b60008060008060006060868803121561182157611820611568565b5b600086013567ffffffffffffffff81111561183f5761183e61156d565b5b61184b8882890161172b565b955050602086013567ffffffffffffffff81111561186c5761186b61156d565b5b61187888828901611759565b9450945050604086013567ffffffffffffffff81111561189b5761189a61156d565b5b6118a7888289016117af565b92509250509295509295909350565b6118bf816116ea565b81146118ca57600080fd5b50565b6000813590506118dc816118b6565b92915050565b6000806000606084860312156118fb576118fa611568565b5b6000611909868287016118cd565b935050602061191a868287016118cd565b925050604061192b868287016115f1565b9150509250925092565b6000806040838503121561194c5761194b611568565b5b600061195a858286016115f1565b925050602061196b858286016118cd565b9150509250929050565b600061198082611672565b9050919050565b61199081611975565b82525050565b60006020820190506119ab6000830184611987565b92915050565b60006119bc82611672565b9050919050565b6119cc816119b1565b82525050565b60006020820190506119e760008301846119c3565b92915050565b600060208284031215611a0357611a02611568565b5b6000611a11848285016118cd565b91505092915050565b6000611a2582611672565b9050919050565b611a3581611a1a565b82525050565b6000602082019050611a506000830184611a2c565b92915050565b600082825260208201905092915050565b7f7a65726f20616464720000000000000000000000000000000000000000000000600082015250565b6000611a9d600983611a56565b9150611aa882611a67565b602082019050919050565b60006020820190508181036000830152611acc81611a90565b9050919050565b7f696e73756666696369656e742062616c616e6365000000000000000000000000600082015250565b6000611b09601483611a56565b9150611b1482611ad3565b602082019050919050565b60006020820190508181036000830152611b3881611afc565b9050919050565b600081905092915050565b50565b6000611b5a600083611b3f565b9150611b6582611b4a565b600082019050919050565b6000611b7b82611b4d565b9150819050919050565b7f455448207472616e73666572206661696c656400000000000000000000000000600082015250565b6000611bbb601383611a56565b9150611bc682611b85565b602082019050919050565b60006020820190508181036000830152611bea81611bae565b9050919050565b7f6e6f207461726765740000000000000000000000000000000000000000000000600082015250565b6000611c27600983611a56565b9150611c3282611bf1565b602082019050919050565b60006020820190508181036000830152611c5681611c1a565b9050919050565b7f6c656e206d69736d617463680000000000000000000000000000000000000000600082015250565b6000611c93600c83611a56565b9150611c9e82611c5d565b602082019050919050565b60006020820190508181036000830152611cc281611c86565b9050919050565b7f746f6f2068696768000000000000000000000000000000000000000000000000600082015250565b6000611cff600883611a56565b9150611d0a82611cc9565b602082019050919050565b60006020820190508181036000830152611d2e81611cf2565b9050919050565b7f4e487b7100000000000000000000000000000000000000000000000000000000600052603260045260246000fd5b611d6d81611572565b82525050565b6000608082019050611d8860008301876116fc565b611d9560208301866116fc565b611da26040830185611d64565b611daf60608301846116fc565b95945050505050565b7f4e487b7100000000000000000000000000000000000000000000000000000000600052601160045260246000fd5b6000611df2826115d0565b9150611dfd836115d0565b9250828203905081811115611e1557611e14611db8565b5b92915050565b600081519050611e2a816115da565b92915050565b600060208284031215611e4657611e45611568565b5b6000611e5484828501611e1b565b91505092915050565b600080fd5b600080fd5b600080fd5b60008083356001602003843603038112611e8957611e88611e5d565b5b80840192508235915067ffffffffffffffff821115611eab57611eaa611e62565b5b602083019250600182023603831315611ec757611ec6611e67565b5b509250929050565b60008083356001602003843603038112611eec57611eeb611e5d565b5b80840192508235915067ffffffffffffffff821115611f0e57611f0d611e62565b5b602083019250602082023603831315611f2a57611f29611e67565b5b509250929050565b600082825260208201905092915050565b82818337600083830152505050565b6000601f19601f8301169050919050565b6000611f6f8385611f32565b9350611f7c838584611f43565b611f8583611f52565b840190509392505050565b600082825260208201905092915050565b6000819050919050565b600082825260208201905092915050565b6000611fc88385611fab565b9350611fd5838584611f43565b611fde83611f52565b840190509392505050565b6000611ff6848484611fbc565b90509392505050565b600080fd5b600080fd5b600080fd5b6000808335600160200384360303811261202b5761202a612009565b5b83810192508235915060208301925067ffffffffffffffff82111561205357612052611fff565b5b60018202360383131561206957612068612004565b5b509250929050565b6000602082019050919050565b600061208a8385611f90565b93508360208402850161209c84611fa1565b8060005b878110156120e25784840389526120b7828461200e565b6120c2868284611fe9565b95506120cd84612071565b935060208b019a5050506001810190506120a0565b50829750879450505050509392505050565b6000606082019050818103600083015261210f818789611f63565b9050818103602083015261212481858761207e565b905061213360408301846116c0565b9695505050505050565b6000612148826115d0565b9150612153836115d0565b9250828202612161816115d0565b9150828204841483151761217857612177611db8565b5b5092915050565b7f4e487b7100000000000000000000000000000000000000000000000000000000600052601260045260246000fd5b60006121b9826115d0565b91506121c4836115d0565b9250826121d4576121d361217f565b5b828204905092915050565b600061ffff82169050919050565b6121f6816121df565b811461220157600080fd5b50565b600081359050612213816121ed565b92915050565b60006020828403121561222f5761222e611568565b5b600061223d84828501612204565b91505092915050565b600060408201905061225b60008301856116fc565b61226860208301846116c0565b9392505050565b7f66656520756e646572666c6f7700000000000000000000000000000000000000600082015250565b60006122a5600d83611a56565b91506122b08261226f565b602082019050919050565b600060208201905081810360008301526122d481612298565b9050919050565b6122e4816121df565b82525050565b6000819050919050565b6122fd816122ea565b82525050565b600063ffffffff82169050919050565b61231c81612303565b82525050565b600060c08201905061233760008301896116fc565b61234460208301886116c0565b61235160408301876122db565b61235e60608301866122f4565b61236b60808301856116c0565b61237860a0830184612313565b979650505050505050565b600067ffffffffffffffff82169050919050565b6123a081612383565b81146123ab57600080fd5b50565b6000815190506123bd81612397565b92915050565b6000602082840312156123d9576123d8611568565b5b60006123e7848285016123ae565b91505092915050565b6000819050919050565b600061241561241061240b846123f0565b611646565b6115d0565b9050919050565b612425816123fa565b82525050565b600060408201905061244060008301856116fc565b61244d602083018461241c565b9392505050565b60008115159050919050565b61246981612454565b811461247457600080fd5b50565b60008151905061248681612460565b92915050565b6000602082840312156124a2576124a1611568565b5b60006124b084828501612477565b91505092915050565b6124c281612383565b82525050565b60006080820190506124dd60008301876116c0565b6124ea60208301866122db565b6124f760408301856122f4565b61250460608301846124b9565b95945050505050565b600060408201905061252260008301856116fc565b61252f60208301846116fc565b9392505050565b6000612541826115d0565b915061254c836115d0565b925082820190508082111561256457612563611db8565b5b9291505056fea2646970667358221220023980621a8d2b40ad714b2f18609d884c381d405e547c87e431892775595f1964736f6c63430008180033",
  "linkReferences": {},
  "deployedLinkReferences": {}
}