{
  "_format": "hh-sol-artifact-1",
  "contractName": "DustCollectorUniversalPermit2CCTP",
  "sourceName": "contracts/DustCollectorUniversalPermit2CCTP.sol",
  "abi": [
    {
      "inputs": [
        {
          "internalType": "address",
          "name": "_router",
          "type": "address"
        },
        {
          "internalType": "address",
          "name": "_permit2",
          "type": "address"
        },
        {
          "internalType": "address",
          "name": "_cctp",
          "type": "address"
        },
        {
          "internalType": "address",
          "name": "_feeCollector",
          "type": "address"
        }
      ],
      "stateMutability": "nonpayable",
      "type": "constructor"
    },
    {
      "inputs": [
        {
          "internalType": "address",
          "name": "owner",
          "type": "address"
        }
      ],
      "name": "OwnableInvalidOwner",
      "type": "error"
    },
    {
      "inputs": [
        {
          "internalType": "address",
          "name": "account",
          "type": "address"
        }
      ],
      "name": "OwnableUnauthorizedAccount",
      "type": "error"
    },
    {
      "inputs": [
        {
          "internalType": "address",
          "name": "token",
          "type": "address"
        }
      ],
      "name": "SafeERC20FailedOperation",
      "type": "error"
    },
    {
      "anonymous": false,
      "inputs": [
        {
          "indexed": true,
          "internalType": "address",
          "name": "user",
          "type": "address"
        },
        {
          "indexed": true,
          "internalType": "address",
          "name": "token",
          "type": "address"
        },
        {
          "indexed": false,
          "internalType": "uint256",
          "name": "amount",
          "type": "uint256"
        },
        {
          "indexed": false,
          "internalType": "uint16",
          "name": "dstChain",
          "type": "uint16"
        },
        {
          "indexed": false,
          "internalType": "bytes32",
          "name": "recipient",
          "type": "bytes32"
        }
      ],
      "name": "Bridged",
      "type": "event"
    },
    {
      "anonymous": false,
      "inputs": [
        {
          "indexed": true,
          "internalType": "address",
          "name": "token",
          "type": "address"
        },
        {
          "indexed": false,
          "internalType": "uint256",
          "name": "amount",
          "type": "uint256"
        }
      ],
      "name": "FeeCollected",
      "type": "event"
    },
    {
      "anonymous": false,
      "inputs": [
        {
          "indexed": true,
          "internalType": "address",
          "name": "previousOwner",
          "type": "address"
        },
        {
          "indexed": true,
          "internalType": "address",
          "name": "newOwner",
          "type": "address"
        }
      ],
      "name": "OwnershipTransferred",
      "type": "event"
    },
    {
      "anonymous": false,
      "inputs": [
        {
          "indexed": true,
          "internalType": "address",
          "name": "user",
          "type": "address"
        },
        {
          "indexed": true,
          "internalType": "address",
          "name": "token",
          "type": "address"
        },
        {
          "indexed": false,
          "internalType": "uint256",
          "name": "amount",
          "type": "uint256"
        }
      ],
      "name": "Swapped",
      "type": "event"
    },
    {
      "inputs": [
        {
          "components": [
            {
              "internalType": "bytes",
              "name": "commands",
              "type": "bytes"
            },
            {
              "internalType": "bytes[]",
              "name": "inputs",
              "type": "bytes[]"
            },
            {
              "internalType": "uint256",
              "name": "deadline",
              "type": "uint256"
            },
            {
              "internalType": "address",
              "name": "targetToken",
              "type": "address"
            },
            {
              "internalType": "uint16",
              "name": "dstChain",
              "type": "uint16"
            },
            {
              "internalType": "uint32",
              "name": "dstDomain",
              "type": "uint32"
            },
            {
              "internalType": "bytes32",
              "name": "recipient",
              "type": "bytes32"
            },
            {
              "internalType": "uint256",
              "name": "arbiterFee",
              "type": "uint256"
            },
            {
              "internalType": "bytes32",
              "name": "destinationCaller",
              "type": "bytes32"
            },
            {
              "internalType": "uint256",
              "name": "maxFee",
              "type": "uint256"
            },
            {
              "internalType": "uint32",
              "name": "minFinalityThreshold",
              "type": "uint32"
            },
            {
              "components": [
                {
                  "internalType": "address",
                  "name": "refundAddress",
                  "type": "address"
                },
                {
                  "internalType": "bytes",
                  "name": "signedQuote",
                  "type": "bytes"
                },
                {
                  "internalType": "bytes",
                  "name": "instructions",
                  "type": "bytes"
                }
              ],
              "internalType": "struct ExecutorArgs",
              "name": "executorArgs",
              "type": "tuple"
            },
            {
              "components": [
                {
                  "internalType": "uint16",
                  "name": "dbps",
                  "type": "uint16"
                },
                {
                  "internalType": "address",
                  "name": "payee",
                  "type": "address"
                }
              ],
              "internalType": "struct FeeArgs",
              "name": "feeArgs",
              "type": "tuple"
            },
            {
              "internalType": "uint256",
              "name": "estimatedCost",
              "type": "uint256"
            }
          ],
          "internalType": "struct DustCollectorUniversalPermit2CCTP.SwapParams",
          "name": "params",
          "type": "tuple"
        },
        {
          "internalType": "address[]",
          "name": "pullTokens",
          "type": "address[]"
        },
        {
          "internalType": "uint256[]",
          "name": "pullAmounts",
          "type": "uint256[]"
        }
      ],
      "name": "batchCollectWithUniversalRouter",
      "outputs": [],
      "stateMutability": "payable",
      "type": "function"
    },
    {
      "inputs": [],
      "name": "cctp",
      "outputs": [
        {
          "internalType": "contract ICCTPv2WithExecutor",
          "name": "",
          "type": "address"
        }
      ],
      "stateMutability": "view",
      "type": "function"
    },
    {
      "inputs": [],
      "name": "feeBps",
      "outputs": [
        {
          "internalType": "uint256",
          "name": "",
          "type": "uint256"
        }
      ],
      "stateMutability": "view",
      "type": "function"
    },
    {
      "inputs": [],
      "name": "feeCollector",
      "outputs": [
        {
          "internalType": "address",
          "name": "",
          "type": "address"
        }
      ],
      "stateMutability": "view",
      "type": "function"
    },
    {
      "inputs": [],
      "name": "owner",
      "outputs": [
        {
          "internalType": "address",
          "name": "",
          "type": "address"
        }
      ],
      "stateMutability": "view",
      "type": "function"
    },
    {
      "inputs": [],
      "name": "permit2",
      "outputs": [
        {
          "internalType": "contract IPermit2",
          "name": "",
          "type": "address"
        }
      ],
      "stateMutability": "view",
      "type": "function"
    },
    {
      "inputs": [],
      "name": "renounceOwnership",
      "outputs": [],
      "stateMutability": "nonpayable",
      "type": "function"
    },
    {
      "inputs": [
        {
          "internalType": "address",
          "name": "t",
          "type": "address"
        },
        {
          "internalType": "address",
          "name": "to",
          "type": "address"
        },
        {
          "internalType": "uint256",
          "name": "amt",
          "type": "uint256"
        }
      ],
      "name": "rescueERC20",
      "outputs": [],
      "stateMutability": "nonpayable",
      "type": "function"
    },
    {
      "inputs": [
        {
          "internalType": "address payable",
          "name": "to",
          "type": "address"
        },
        {
          "internalType": "uint256",
          "name": "amt",
          "type": "uint256"
        }
      ],
      "name": "rescueETH",
      "outputs": [],
      "stateMutability": "nonpayable",
      "type": "function"
    },
    {
      "inputs": [],
      "name": "router",
      "outputs": [
        {
          "internalType": "contract IUniversalRouter",
          "name": "",
          "type": "address"
        }
      ],
      "stateMutability": "view",
      "type": "function"
    },
    {
      "inputs": [
        {
          "internalType": "uint256",
          "name": "_bps",
          "type": "uint256"
        },
        {
          "internalType": "address",
          "name": "_collector",
          "type": "address"
        }
      ],
      "name": "setFee",
      "outputs": [],
      "stateMutability": "nonpayable",
      "type": "function"
    },
    {
      "inputs": [
        {
          "internalType": "address",
          "name": "newOwner",
          "type": "address"
        }
      ],
      "name": "transferOwnership",
      "outputs": [],
      "stateMutability": "nonpayable",
      "type": "function"
    },
    {
      "stateMutability": "payable",
      "type": "receive"
    }
  ],
  "bytecode": "0x60e0604052601e6002553480156200001657600080fd5b5060405162002aac38038062002aac83398181016040528101906200003c9190620003fa565b33600073ffffffffffffffffffffffffffffffffffffffff168173ffffffffffffffffffffffffffffffffffffffff1603620000b25760006040517f1e4fbdf7000000000000000000000000000000000000000000000000000000008152600401620000a991906200047d565b60405180910390fd5b620000c381620002cc60201b60201c565b50600073ffffffffffffffffffffffffffffffffffffffff168473ffffffffffffffffffffffffffffffffffffffff16141580156200012f5750600073ffffffffffffffffffffffffffffffffffffffff168373ffffffffffffffffffffffffffffffffffffffff1614155b8015620001695750600073ffffffffffffffffffffffffffffffffffffffff168273ffffffffffffffffffffffffffffffffffffffff1614155b8015620001a35750600073ffffffffffffffffffffffffffffffffffffffff168173ffffffffffffffffffffffffffffffffffffffff1614155b620001e5576040517f08c379a0000000000000000000000000000000000000000000000000000000008152600401620001dc90620004fb565b60405180910390fd5b8373ffffffffffffffffffffffffffffffffffffffff1660808173ffffffffffffffffffffffffffffffffffffffff16815250508273ffffffffffffffffffffffffffffffffffffffff1660a08173ffffffffffffffffffffffffffffffffffffffff16815250508173ffffffffffffffffffffffffffffffffffffffff1660c08173ffffffffffffffffffffffffffffffffffffffff168152505080600160006101000a81548173ffffffffffffffffffffffffffffffffffffffff021916908373ffffffffffffffffffffffffffffffffffffffff160217905550505050506200051d565b60008060009054906101000a900473ffffffffffffffffffffffffffffffffffffffff169050816000806101000a81548173ffffffffffffffffffffffffffffffffffffffff021916908373ffffffffffffffffffffffffffffffffffffffff1602179055508173ffffffffffffffffffffffffffffffffffffffff168173ffffffffffffffffffffffffffffffffffffffff167f8be0079c531659141344cd1fd0a4f28419497f9722a3daafe3b4186f6b6457e060405160405180910390a35050565b600080fd5b600073ffffffffffffffffffffffffffffffffffffffff82169050919050565b6000620003c28262000395565b9050919050565b620003d481620003b5565b8114620003e057600080fd5b50565b600081519050620003f481620003c9565b92915050565b6000806000806080858703121562000417576200041662000390565b5b60006200042787828801620003e3565b94505060206200043a87828801620003e3565b93505060406200044d87828801620003e3565b92505060606200046087828801620003e3565b91505092959194509250565b6200047781620003b5565b82525050565b60006020820190506200049460008301846200046c565b92915050565b600082825260208201905092915050565b7f7a65726f20616464720000000000000000000000000000000000000000000000600082015250565b6000620004e36009836200049a565b9150620004f082620004ab565b602082019050919050565b600060208201905081810360008301526200051681620004d4565b9050919050565b60805160a05160c051612535620005776000396000818161064f01528181610eca01528181610f12015261103c0152600081816103fd01526107b20152600081816106f9015281816108860152610a0e01526125356000f3fe6080604052600436106100ab5760003560e01c8063b2118a8d11610064578063b2118a8d14610194578063b4f2e8b8146101bd578063c415b95c146101e6578063e3329e3214610211578063f2fde38b1461023c578063f887ea4014610265576100b2565b8063099a04e5146100b757806312261ee7146100e057806324a9d8531461010b5780634d9e0b2914610136578063715018a6146101525780638da5cb5b14610169576100b2565b366100b257005b600080fd5b3480156100c357600080fd5b506100de60048036038101906100d9919061149f565b610290565b005b3480156100ec57600080fd5b506100f56103fb565b604051610102919061153e565b60405180910390f35b34801561011757600080fd5b5061012061041f565b60405161012d9190611568565b60405180910390f35b610150600480360381019061014b9190611663565b610425565b005b34801561015e57600080fd5b50610167610519565b005b34801561017557600080fd5b5061017e61052d565b60405161018b9190611735565b60405180910390f35b3480156101a057600080fd5b506101bb60048036038101906101b6919061177c565b610556565b005b3480156101c957600080fd5b506101e460048036038101906101df91906117cf565b61058e565b005b3480156101f257600080fd5b506101fb610627565b6040516102089190611735565b60405180910390f35b34801561021d57600080fd5b5061022661064d565b6040516102339190611830565b60405180910390f35b34801561024857600080fd5b50610263600480360381019061025e919061184b565b610671565b005b34801561027157600080fd5b5061027a6106f7565b6040516102879190611899565b60405180910390f35b61029861071b565b600073ffffffffffffffffffffffffffffffffffffffff168273ffffffffffffffffffffffffffffffffffffffff1603610307576040517f08c379a00000000000000000000000000000000000000000000000000000000081526004016102fe90611911565b60405180910390fd5b4781111561034a576040517f08c379a00000000000000000000000000000000000000000000000000000000081526004016103419061197d565b60405180910390fd5b60008273ffffffffffffffffffffffffffffffffffffffff1682604051610370906119ce565b60006040518083038185875af1925050503d80600081146103ad576040519150601f19603f3d011682016040523d82523d6000602084013e6103b2565b606091505b50509050806103f6576040517f08c379a00000000000000000000000000000000000000000000000000000000081526004016103ed90611a2f565b60405180910390fd5b505050565b7f000000000000000000000000000000000000000000000000000000000000000081565b60025481565b600073ffffffffffffffffffffffffffffffffffffffff16856060016020810190610450919061184b565b73ffffffffffffffffffffffffffffffffffffffff16036104a6576040517f08c379a000000000000000000000000000000000000000000000000000000000815260040161049d90611a9b565b60405180910390fd5b8181905084849050146104ee576040517f08c379a00000000000000000000000000000000000000000000000000000000081526004016104e590611b07565b60405180910390fd5b6104fa848484846107a2565b60006105058661091e565b90506105118682610b66565b505050505050565b61052161071b565b61052b6000610d63565b565b60008060009054906101000a900473ffffffffffffffffffffffffffffffffffffffff16905090565b61055e61071b565b61058982828573ffffffffffffffffffffffffffffffffffffffff16610e279092919063ffffffff16565b505050565b61059661071b565b6103e88211156105db576040517f08c379a00000000000000000000000000000000000000000000000000000000081526004016105d290611b73565b60405180910390fd5b8160028190555080600160006101000a81548173ffffffffffffffffffffffffffffffffffffffff021916908373ffffffffffffffffffffffffffffffffffffffff1602179055505050565b600160009054906101000a900473ffffffffffffffffffffffffffffffffffffffff1681565b7f000000000000000000000000000000000000000000000000000000000000000081565b61067961071b565b600073ffffffffffffffffffffffffffffffffffffffff168173ffffffffffffffffffffffffffffffffffffffff16036106eb5760006040517f1e4fbdf70000000000000000000000000000000000000000000000000000000081526004016106e29190611735565b60405180910390fd5b6106f481610d63565b50565b7f000000000000000000000000000000000000000000000000000000000000000081565b610723610ea6565b73ffffffffffffffffffffffffffffffffffffffff1661074161052d565b73ffffffffffffffffffffffffffffffffffffffff16146107a057610764610ea6565b6040517f118cdaa70000000000000000000000000000000000000000000000000000000081526004016107979190611735565b60405180910390fd5b565b60005b84849050811015610917577f000000000000000000000000000000000000000000000000000000000000000073ffffffffffffffffffffffffffffffffffffffff166336c78516333086868681811061080157610800611b93565b5b9050602002013589898781811061081b5761081a611b93565b5b9050602002016020810190610830919061184b565b6040518563ffffffff1660e01b815260040161084f9493929190611bd1565b600060405180830381600087803b15801561086957600080fd5b505af115801561087d573d6000803e3d6000fd5b5050505061090c7f00000000000000000000000000000000000000000000000000000000000000008484848181106108b8576108b7611b93565b5b905060200201358787858181106108d2576108d1611b93565b5b90506020020160208101906108e7919061184b565b73ffffffffffffffffffffffffffffffffffffffff16610e279092919063ffffffff16565b8060010190506107a5565b5050505050565b600080826060016020810190610934919061184b565b73ffffffffffffffffffffffffffffffffffffffff166370a08231306040518263ffffffff1660e01b815260040161096c9190611735565b602060405180830381865afa158015610989573d6000803e3d6000fd5b505050506040513d601f19601f820116820180604052508101906109ad9190611c2b565b9050826101c001353410156109f7576040517f08c379a00000000000000000000000000000000000000000000000000000000081526004016109ee90611ca4565b60405180910390fd5b6000836101c0013534610a0a9190611cf3565b90507f000000000000000000000000000000000000000000000000000000000000000073ffffffffffffffffffffffffffffffffffffffff16633593564c82868060000190610a599190611d36565b888060200190610a699190611d99565b8a604001356040518763ffffffff1660e01b8152600401610a8e959493929190611fbe565b6000604051808303818588803b158015610aa757600080fd5b505af1158015610abb573d6000803e3d6000fd5b50505050506000846060016020810190610ad5919061184b565b73ffffffffffffffffffffffffffffffffffffffff166370a08231306040518263ffffffff1660e01b8152600401610b0d9190611735565b602060405180830381865afa158015610b2a573d6000803e3d6000fd5b505050506040513d601f19601f82011682018060405250810190610b4e9190611c2b565b90508281610b5c9190611cf3565b9350505050919050565b600061271060025483610b799190612007565b610b839190612078565b905060008183610b939190611cf3565b90506000821115610c5e57610bfd600160009054906101000a900473ffffffffffffffffffffffffffffffffffffffff1683866060016020810190610bd8919061184b565b73ffffffffffffffffffffffffffffffffffffffff16610e279092919063ffffffff16565b836060016020810190610c10919061184b565b73ffffffffffffffffffffffffffffffffffffffff167f06c5efeff5c320943d265dc4e5f1af95ad523555ce0c1957e367dda5514572df83604051610c559190611568565b60405180910390a25b6000811115610d5d576000846080016020810190610c7c91906120e3565b61ffff16148015610c9357506000801b8460c00135145b15610d5157610cd53382866060016020810190610cb0919061184b565b73ffffffffffffffffffffffffffffffffffffffff16610e279092919063ffffffff16565b836060016020810190610ce8919061184b565b73ffffffffffffffffffffffffffffffffffffffff163373ffffffffffffffffffffffffffffffffffffffff167f2e7f8a64aa3240292c0adfa332e1e8945dd31589fcb0bce2721fa21c69b1390f83604051610d449190611568565b60405180910390a3610d5c565b610d5b8482610eae565b5b5b50505050565b60008060009054906101000a900473ffffffffffffffffffffffffffffffffffffffff169050816000806101000a81548173ffffffffffffffffffffffffffffffffffffffff021916908373ffffffffffffffffffffffffffffffffffffffff1602179055508173ffffffffffffffffffffffffffffffffffffffff168173ffffffffffffffffffffffffffffffffffffffff167f8be0079c531659141344cd1fd0a4f28419497f9722a3daafe3b4186f6b6457e060405160405180910390a35050565b610ea1838473ffffffffffffffffffffffffffffffffffffffff1663a9059cbb8585604051602401610e5a929190612110565b604051602081830303815290604052915060e01b6020820180517bffffffffffffffffffffffffffffffffffffffffffffffffffffffff8381831617835250505050611154565b505050565b600033905090565b6000826060016020810190610ec3919061184b565b9050610f107f0000000000000000000000000000000000000000000000000000000000000000838373ffffffffffffffffffffffffffffffffffffffff166111f69092919063ffffffff16565b7f000000000000000000000000000000000000000000000000000000000000000073ffffffffffffffffffffffffffffffffffffffff1663e59ced5d846101c0013584866080016020810190610f6691906120e3565b8760a0016020810190610f799190612175565b8860c00135896060016020810190610f91919061184b565b8a61010001358b61012001358c610140016020810190610fb19190612175565b8d806101600190610fc291906121a2565b8e610180016040518c63ffffffff1660e01b8152600401610fec9a999897969594939291906122ff565b6000604051808303818588803b15801561100557600080fd5b505af1158015611019573d6000803e3d6000fd5b50505050508073ffffffffffffffffffffffffffffffffffffffff1663095ea7b37f000000000000000000000000000000000000000000000000000000000000000060006040518363ffffffff1660e01b815260040161107a9291906123dd565b6020604051808303816000875af1158015611099573d6000803e3d6000fd5b505050506040513d601f19601f820116820180604052508101906110bd919061243e565b508260600160208101906110d1919061184b565b73ffffffffffffffffffffffffffffffffffffffff163373ffffffffffffffffffffffffffffffffffffffff167fc28a28262e6ebf3cb013577b66c361fe9de6dd4b6f6c25cdb2a0e854bd28d15c8486608001602081019061113391906120e3565b8760c001356040516111479392919061246b565b60405180910390a3505050565b600080602060008451602086016000885af180611177576040513d6000823e3d81fd5b3d9250600051915050600082146111925760018114156111ae565b60008473ffffffffffffffffffffffffffffffffffffffff163b145b156111f057836040517f5274afe70000000000000000000000000000000000000000000000000000000081526004016111e79190611735565b60405180910390fd5b50505050565b60008373ffffffffffffffffffffffffffffffffffffffff1663dd62ed3e30856040518363ffffffff1660e01b81526004016112339291906124a2565b602060405180830381865afa158015611250573d6000803e3d6000fd5b505050506040513d601f19601f820116820180604052508101906112749190611c2b565b905061128c8484848461128791906124cb565b611292565b50505050565b60008373ffffffffffffffffffffffffffffffffffffffff1663095ea7b384846040516024016112c3929190612110565b604051602081830303815290604052915060e01b6020820180517bffffffffffffffffffffffffffffffffffffffffffffffffffffffff8381831617835250505050905061131184826113a1565b61139b57611390848573ffffffffffffffffffffffffffffffffffffffff1663095ea7b38660006040516024016113499291906123dd565b604051602081830303815290604052915060e01b6020820180517bffffffffffffffffffffffffffffffffffffffffffffffffffffffff8381831617835250505050611154565b61139a8482611154565b5b50505050565b6000806000806020600086516020880160008a5af192503d915060005190508280156113f65750600082146113d957600181146113f5565b60008673ffffffffffffffffffffffffffffffffffffffff163b115b5b935050505092915050565b600080fd5b600080fd5b600073ffffffffffffffffffffffffffffffffffffffff82169050919050565b60006114368261140b565b9050919050565b6114468161142b565b811461145157600080fd5b50565b6000813590506114638161143d565b92915050565b6000819050919050565b61147c81611469565b811461148757600080fd5b50565b60008135905061149981611473565b92915050565b600080604083850312156114b6576114b5611401565b5b60006114c485828601611454565b92505060206114d58582860161148a565b9150509250929050565b6000819050919050565b60006115046114ff6114fa8461140b565b6114df565b61140b565b9050919050565b6000611516826114e9565b9050919050565b60006115288261150b565b9050919050565b6115388161151d565b82525050565b6000602082019050611553600083018461152f565b92915050565b61156281611469565b82525050565b600060208201905061157d6000830184611559565b92915050565b600080fd5b60006101e0828403121561159f5761159e611583565b5b81905092915050565b600080fd5b600080fd5b600080fd5b60008083601f8401126115cd576115cc6115a8565b5b8235905067ffffffffffffffff8111156115ea576115e96115ad565b5b602083019150836020820283011115611606576116056115b2565b5b9250929050565b60008083601f840112611623576116226115a8565b5b8235905067ffffffffffffffff8111156116405761163f6115ad565b5b60208301915083602082028301111561165c5761165b6115b2565b5b9250929050565b60008060008060006060868803121561167f5761167e611401565b5b600086013567ffffffffffffffff81111561169d5761169c611406565b5b6116a988828901611588565b955050602086013567ffffffffffffffff8111156116ca576116c9611406565b5b6116d6888289016115b7565b9450945050604086013567ffffffffffffffff8111156116f9576116f8611406565b5b6117058882890161160d565b92509250509295509295909350565b600061171f8261140b565b9050919050565b61172f81611714565b82525050565b600060208201905061174a6000830184611726565b92915050565b61175981611714565b811461176457600080fd5b50565b60008135905061177681611750565b92915050565b60008060006060848603121561179557611794611401565b5b60006117a386828701611767565b93505060206117b486828701611767565b92505060406117c58682870161148a565b9150509250925092565b600080604083850312156117e6576117e5611401565b5b60006117f48582860161148a565b925050602061180585828601611767565b9150509250929050565b600061181a8261150b565b9050919050565b61182a8161180f565b82525050565b60006020820190506118456000830184611821565b92915050565b60006020828403121561186157611860611401565b5b600061186f84828501611767565b91505092915050565b60006118838261150b565b9050919050565b61189381611878565b82525050565b60006020820190506118ae600083018461188a565b92915050565b600082825260208201905092915050565b7f7a65726f20616464720000000000000000000000000000000000000000000000600082015250565b60006118fb6009836118b4565b9150611906826118c5565b602082019050919050565b6000602082019050818103600083015261192a816118ee565b9050919050565b7f696e73756666696369656e742062616c616e6365000000000000000000000000600082015250565b60006119676014836118b4565b915061197282611931565b602082019050919050565b600060208201905081810360008301526119968161195a565b9050919050565b600081905092915050565b50565b60006119b860008361199d565b91506119c3826119a8565b600082019050919050565b60006119d9826119ab565b9150819050919050565b7f455448207472616e73666572206661696c656400000000000000000000000000600082015250565b6000611a196013836118b4565b9150611a24826119e3565b602082019050919050565b60006020820190508181036000830152611a4881611a0c565b9050919050565b7f6e6f207461726765740000000000000000000000000000000000000000000000600082015250565b6000611a856009836118b4565b9150611a9082611a4f565b602082019050919050565b60006020820190508181036000830152611ab481611a78565b9050919050565b7f6c656e206d69736d617463680000000000000000000000000000000000000000600082015250565b6000611af1600c836118b4565b9150611afc82611abb565b602082019050919050565b60006020820190508181036000830152611b2081611ae4565b9050919050565b7f746f6f2068696768000000000000000000000000000000000000000000000000600082015250565b6000611b5d6008836118b4565b9150611b6882611b27565b602082019050919050565b60006020820190508181036000830152611b8c81611b50565b9050919050565b7f4e487b7100000000000000000000000000000000000000000000000000000000600052603260045260246000fd5b611bcb8161140b565b82525050565b6000608082019050611be66000830187611726565b611bf36020830186611726565b611c006040830185611bc2565b611c0d6060830184611726565b95945050505050565b600081519050611c2581611473565b92915050565b600060208284031215611c4157611c40611401565b5b6000611c4f84828501611c16565b91505092915050565b7f496e73756666696369656e74206574682066756e64732e000000000000000000600082015250565b6000611c8e6017836118b4565b9150611c9982611c58565b602082019050919050565b60006020820190508181036000830152611cbd81611c81565b9050919050565b7f4e487b7100000000000000000000000000000000000000000000000000000000600052601160045260246000fd5b6000611cfe82611469565b9150611d0983611469565b9250828203905081811115611d2157611d20611cc4565b5b92915050565b600080fd5b600080fd5b600080fd5b60008083356001602003843603038112611d5357611d52611d27565b5b80840192508235915067ffffffffffffffff821115611d7557611d74611d2c565b5b602083019250600182023603831315611d9157611d90611d31565b5b509250929050565b60008083356001602003843603038112611db657611db5611d27565b5b80840192508235915067ffffffffffffffff821115611dd857611dd7611d2c565b5b602083019250602082023603831315611df457611df3611d31565b5b509250929050565b600082825260208201905092915050565b82818337600083830152505050565b6000601f19601f8301169050919050565b6000611e398385611dfc565b9350611e46838584611e0d565b611e4f83611e1c565b840190509392505050565b600082825260208201905092915050565b6000819050919050565b600082825260208201905092915050565b6000611e928385611e75565b9350611e9f838584611e0d565b611ea883611e1c565b840190509392505050565b6000611ec0848484611e86565b90509392505050565b600080fd5b600080fd5b600080fd5b60008083356001602003843603038112611ef557611ef4611ed3565b5b83810192508235915060208301925067ffffffffffffffff821115611f1d57611f1c611ec9565b5b600182023603831315611f3357611f32611ece565b5b509250929050565b6000602082019050919050565b6000611f548385611e5a565b935083602084028501611f6684611e6b565b8060005b87811015611fac578484038952611f818284611ed8565b611f8c868284611eb3565b9550611f9784611f3b565b935060208b019a505050600181019050611f6a565b50829750879450505050509392505050565b60006060820190508181036000830152611fd9818789611e2d565b90508181036020830152611fee818587611f48565b9050611ffd6040830184611559565b9695505050505050565b600061201282611469565b915061201d83611469565b925082820261202b81611469565b9150828204841483151761204257612041611cc4565b5b5092915050565b7f4e487b7100000000000000000000000000000000000000000000000000000000600052601260045260246000fd5b600061208382611469565b915061208e83611469565b92508261209e5761209d612049565b5b828204905092915050565b600061ffff82169050919050565b6120c0816120a9565b81146120cb57600080fd5b50565b6000813590506120dd816120b7565b92915050565b6000602082840312156120f9576120f8611401565b5b6000612107848285016120ce565b91505092915050565b60006040820190506121256000830185611726565b6121326020830184611559565b9392505050565b600063ffffffff82169050919050565b61215281612139565b811461215d57600080fd5b50565b60008135905061216f81612149565b92915050565b60006020828403121561218b5761218a611401565b5b600061219984828501612160565b91505092915050565b6000823560016060038336030381126121be576121bd611d27565b5b80830191505092915050565b6121d3816120a9565b82525050565b6121e281612139565b82525050565b6000819050919050565b6121fb816121e8565b82525050565b60006122106020840184611767565b905092915050565b61222181611714565b82525050565b60006060830161223a6000840184612201565b6122476000860182612218565b506122556020840184611ed8565b8583036020870152612268838284611e86565b925050506122796040840184611ed8565b858303604087015261228c838284611e86565b925050508091505092915050565b60006122a960208401846120ce565b905092915050565b6122ba816120a9565b82525050565b604082016122d1600083018361229a565b6122de60008501826122b1565b506122ec6020830183612201565b6122f96020850182612218565b50505050565b600061016082019050612315600083018d611559565b612322602083018c6121ca565b61232f604083018b6121d9565b61233c606083018a6121f2565b6123496080830189611726565b61235660a08301886121f2565b61236360c0830187611559565b61237060e08301866121d9565b8181036101008301526123838185612227565b90506123936101208301846122c0565b9b9a5050505050505050505050565b6000819050919050565b60006123c76123c26123bd846123a2565b6114df565b611469565b9050919050565b6123d7816123ac565b82525050565b60006040820190506123f26000830185611726565b6123ff60208301846123ce565b9392505050565b60008115159050919050565b61241b81612406565b811461242657600080fd5b50565b60008151905061243881612412565b92915050565b60006020828403121561245457612453611401565b5b600061246284828501612429565b91505092915050565b60006060820190506124806000830186611559565b61248d60208301856121ca565b61249a60408301846121f2565b949350505050565b60006040820190506124b76000830185611726565b6124c46020830184611726565b9392505050565b60006124d682611469565b91506124e183611469565b92508282019050808211156124f9576124f8611cc4565b5b9291505056fea264697066735822122089e6d5121db1000865bcaf84bc6b56fe74571b8d42c06e6d8184c59cc7a31cfd64736f6c63430008180033",
  "linkReferences": {},
  "deployedLinkReferences": {}
}