{
  "_format": "hh-sol-artifact-1",
  "contractName": "DustCollector7702",
  "sourceName": "contracts/MultiSwapCCTP7702.sol",
  "abi": [
    {
      "inputs": [
        {
          "internalType": "address",
          "name": "_router",
          "type": "address"
        },
        {
          "internalType": "address",
          "name": "_cctp",
          "type": "address"
        },
        {
          "internalType": "address",
          "name": "_feeConfig",
          "type": "address"
        }
      ],
      "stateMutability": "nonpayable",
      "type": "constructor"
    },
    {
      "inputs": [
        {
          "internalType": "address",
          "name": "owner",
          "type": "address"
        }
      ],
      "name": "OwnableInvalidOwner",
      "type": "error"
    },
    {
      "inputs": [
        {
          "internalType": "address",
          "name": "account",
          "type": "address"
        }
      ],
      "name": "OwnableUnauthorizedAccount",
      "type": "error"
    },
    {
      "inputs": [
        {
          "internalType": "address",
          "name": "token",
          "type": "address"
        }
      ],
      "name": "SafeERC20FailedOperation",
      "type": "error"
    },
    {
      "anonymous": false,
      "inputs": [
        {
          "indexed": true,
          "internalType": "address",
          "name": "user",
          "type": "address"
        },
        {
          "indexed": true,
          "internalType": "address",
          "name": "token",
          "type": "address"
        },
        {
          "indexed": false,
          "internalType": "uint256",
          "name": "amount",
          "type": "uint256"
        },
        {
          "indexed": false,
          "internalType": "uint16",
          "name": "dstChain",
          "type": "uint16"
        },
        {
          "indexed": false,
          "internalType": "bytes32",
          "name": "recipient",
          "type": "bytes32"
        }
      ],
      "name": "Bridged",
      "type": "event"
    },
    {
      "anonymous": false,
      "inputs": [
        {
          "indexed": true,
          "internalType": "address",
          "name": "token",
          "type": "address"
        },
        {
          "indexed": false,
          "internalType": "uint256",
          "name": "amount",
          "type": "uint256"
        }
      ],
      "name": "FeeCollected",
      "type": "event"
    },
    {
      "anonymous": false,
      "inputs": [
        {
          "indexed": true,
          "internalType": "address",
          "name": "previousOwner",
          "type": "address"
        },
        {
          "indexed": true,
          "internalType": "address",
          "name": "newOwner",
          "type": "address"
        }
      ],
      "name": "OwnershipTransferred",
      "type": "event"
    },
    {
      "anonymous": false,
      "inputs": [
        {
          "indexed": true,
          "internalType": "address",
          "name": "user",
          "type": "address"
        },
        {
          "indexed": true,
          "internalType": "address",
          "name": "token",
          "type": "address"
        },
        {
          "indexed": false,
          "internalType": "uint256",
          "name": "amount",
          "type": "uint256"
        }
      ],
      "name": "Swapped",
      "type": "event"
    },
    {
      "inputs": [
        {
          "components": [
            {
              "internalType": "bytes",
              "name": "commands",
              "type": "bytes"
            },
            {
              "internalType": "bytes[]",
              "name": "inputs",
              "type": "bytes[]"
            },
            {
              "internalType": "uint256",
              "name": "deadline",
              "type": "uint256"
            },
            {
              "internalType": "address",
              "name": "targetToken",
              "type": "address"
            },
            {
              "internalType": "uint16",
              "name": "dstChain",
              "type": "uint16"
            },
            {
              "internalType": "uint32",
              "name": "dstDomain",
              "type": "uint32"
            },
            {
              "internalType": "bytes32",
              "name": "recipient",
              "type": "bytes32"
            },
            {
              "internalType": "uint256",
              "name": "arbiterFee",
              "type": "uint256"
            },
            {
              "internalType": "bytes32",
              "name": "destinationCaller",
              "type": "bytes32"
            },
            {
              "internalType": "uint256",
              "name": "maxFee",
              "type": "uint256"
            },
            {
              "internalType": "uint32",
              "name": "minFinalityThreshold",
              "type": "uint32"
            },
            {
              "components": [
                {
                  "internalType": "address",
                  "name": "refundAddress",
                  "type": "address"
                },
                {
                  "internalType": "bytes",
                  "name": "signedQuote",
                  "type": "bytes"
                },
                {
                  "internalType": "bytes",
                  "name": "instructions",
                  "type": "bytes"
                }
              ],
              "internalType": "struct ExecutorArgs",
              "name": "executorArgs",
              "type": "tuple"
            },
            {
              "components": [
                {
                  "internalType": "uint16",
                  "name": "dbps",
                  "type": "uint16"
                },
                {
                  "internalType": "address",
                  "name": "payee",
                  "type": "address"
                }
              ],
              "internalType": "struct FeeArgs",
              "name": "feeArgs",
              "type": "tuple"
            },
            {
              "internalType": "uint256",
              "name": "estimatedCost",
              "type": "uint256"
            }
          ],
          "internalType": "struct DustCollector7702.SwapParams",
          "name": "params",
          "type": "tuple"
        },
        {
          "internalType": "address[]",
          "name": "pullTokens",
          "type": "address[]"
        },
        {
          "internalType": "uint256[]",
          "name": "pullAmounts",
          "type": "uint256[]"
        }
      ],
      "name": "batchCollectWithUniversalRouter7702",
      "outputs": [],
      "stateMutability": "payable",
      "type": "function"
    },
    {
      "inputs": [],
      "name": "cctp",
      "outputs": [
        {
          "internalType": "contract ICCTPv2WithExecutor",
          "name": "",
          "type": "address"
        }
      ],
      "stateMutability": "view",
      "type": "function"
    },
    {
      "inputs": [],
      "name": "feeConfig",
      "outputs": [
        {
          "internalType": "contract IFeeConfig",
          "name": "",
          "type": "address"
        }
      ],
      "stateMutability": "view",
      "type": "function"
    },
    {
      "inputs": [],
      "name": "getCurrentFeeConfig",
      "outputs": [
        {
          "internalType": "uint256",
          "name": "bps",
          "type": "uint256"
        },
        {
          "internalType": "address",
          "name": "collector",
          "type": "address"
        }
      ],
      "stateMutability": "view",
      "type": "function"
    },
    {
      "inputs": [],
      "name": "owner",
      "outputs": [
        {
          "internalType": "address",
          "name": "",
          "type": "address"
        }
      ],
      "stateMutability": "view",
      "type": "function"
    },
    {
      "inputs": [],
      "name": "renounceOwnership",
      "outputs": [],
      "stateMutability": "nonpayable",
      "type": "function"
    },
    {
      "inputs": [],
      "name": "router",
      "outputs": [
        {
          "internalType": "contract IUniversalRouter",
          "name": "",
          "type": "address"
        }
      ],
      "stateMutability": "view",
      "type": "function"
    },
    {
      "inputs": [
        {
          "internalType": "address",
          "name": "newOwner",
          "type": "address"
        }
      ],
      "name": "transferOwnership",
      "outputs": [],
      "stateMutability": "nonpayable",
      "type": "function"
    },
    {
      "stateMutability": "payable",
      "type": "receive"
    }
  ],
  "bytecode": "0x60e06040523480156200001157600080fd5b5060405162001a0738038062001a07833981810160405281019062000037919062000379565b33600073ffffffffffffffffffffffffffffffffffffffff168173ffffffffffffffffffffffffffffffffffffffff1603620000ad5760006040517f1e4fbdf7000000000000000000000000000000000000000000000000000000008152600401620000a49190620003e6565b60405180910390fd5b620000be816200024b60201b60201c565b50600073ffffffffffffffffffffffffffffffffffffffff168373ffffffffffffffffffffffffffffffffffffffff16141580156200012a5750600073ffffffffffffffffffffffffffffffffffffffff168273ffffffffffffffffffffffffffffffffffffffff1614155b8015620001645750600073ffffffffffffffffffffffffffffffffffffffff168173ffffffffffffffffffffffffffffffffffffffff1614155b620001a6576040517f08c379a00000000000000000000000000000000000000000000000000000000081526004016200019d9062000464565b60405180910390fd5b8273ffffffffffffffffffffffffffffffffffffffff1660808173ffffffffffffffffffffffffffffffffffffffff16815250508173ffffffffffffffffffffffffffffffffffffffff1660a08173ffffffffffffffffffffffffffffffffffffffff16815250508073ffffffffffffffffffffffffffffffffffffffff1660c08173ffffffffffffffffffffffffffffffffffffffff168152505050505062000486565b60008060009054906101000a900473ffffffffffffffffffffffffffffffffffffffff169050816000806101000a81548173ffffffffffffffffffffffffffffffffffffffff021916908373ffffffffffffffffffffffffffffffffffffffff1602179055508173ffffffffffffffffffffffffffffffffffffffff168173ffffffffffffffffffffffffffffffffffffffff167f8be0079c531659141344cd1fd0a4f28419497f9722a3daafe3b4186f6b6457e060405160405180910390a35050565b600080fd5b600073ffffffffffffffffffffffffffffffffffffffff82169050919050565b6000620003418262000314565b9050919050565b620003538162000334565b81146200035f57600080fd5b50565b600081519050620003738162000348565b92915050565b6000806000606084860312156200039557620003946200030f565b5b6000620003a58682870162000362565b9350506020620003b88682870162000362565b9250506040620003cb8682870162000362565b9150509250925092565b620003e08162000334565b82525050565b6000602082019050620003fd6000830184620003d5565b92915050565b600082825260208201905092915050565b7f7a65726f20616464720000000000000000000000000000000000000000000000600082015250565b60006200044c60098362000403565b9150620004598262000414565b602082019050919050565b600060208201905081810360008301526200047f816200043d565b9050919050565b60805160a05160c051611535620004d2600039600081816101c1015281816101e80152610279015260006104a301526000818161054d015281816106cd015261085501526115356000f3fe60806040526004361061007f5760003560e01c8063a4b2b3941161004e578063a4b2b39414610124578063e3329e3214610140578063f2fde38b1461016b578063f887ea401461019457610086565b80631e5eb1d01461008b57806341f57728146100b6578063715018a6146100e25780638da5cb5b146100f957610086565b3661008657005b600080fd5b34801561009757600080fd5b506100a06101bf565b6040516100ad9190610b97565b60405180910390f35b3480156100c257600080fd5b506100cb6101e3565b6040516100d9929190610bec565b60405180910390f35b3480156100ee57600080fd5b506100f761030c565b005b34801561010557600080fd5b5061010e610320565b60405161011b9190610c15565b60405180910390f35b61013e60048036038101906101399190610d1a565b610349565b005b34801561014c57600080fd5b506101556104a1565b6040516101629190610dec565b60405180910390f35b34801561017757600080fd5b50610192600480360381019061018d9190610e33565b6104c5565b005b3480156101a057600080fd5b506101a961054b565b6040516101b69190610e81565b60405180910390f35b7f000000000000000000000000000000000000000000000000000000000000000081565b6000807f000000000000000000000000000000000000000000000000000000000000000073ffffffffffffffffffffffffffffffffffffffff166324a9d8536040518163ffffffff1660e01b8152600401602060405180830381865afa158015610251573d6000803e3d6000fd5b505050506040513d601f19601f820116820180604052508101906102759190610ec8565b91507f000000000000000000000000000000000000000000000000000000000000000073ffffffffffffffffffffffffffffffffffffffff1663c415b95c6040518163ffffffff1660e01b8152600401602060405180830381865afa1580156102e2573d6000803e3d6000fd5b505050506040513d601f19601f820116820180604052508101906103069190610f0a565b90509091565b61031461056f565b61031e60006105f6565b565b60008060009054906101000a900473ffffffffffffffffffffffffffffffffffffffff16905090565b3073ffffffffffffffffffffffffffffffffffffffff163373ffffffffffffffffffffffffffffffffffffffff16146103b7576040517f08c379a00000000000000000000000000000000000000000000000000000000081526004016103ae90610f94565b60405180910390fd5b600073ffffffffffffffffffffffffffffffffffffffff168560600160208101906103e29190610e33565b73ffffffffffffffffffffffffffffffffffffffff1603610438576040517f08c379a000000000000000000000000000000000000000000000000000000000815260040161042f90611000565b60405180910390fd5b818190508484905014610480576040517f08c379a00000000000000000000000000000000000000000000000000000000081526004016104779061106c565b60405180910390fd5b61048c848484846106ba565b600061049786610765565b9050505050505050565b7f000000000000000000000000000000000000000000000000000000000000000081565b6104cd61056f565b600073ffffffffffffffffffffffffffffffffffffffff168173ffffffffffffffffffffffffffffffffffffffff160361053f5760006040517f1e4fbdf70000000000000000000000000000000000000000000000000000000081526004016105369190610c15565b60405180910390fd5b610548816105f6565b50565b7f000000000000000000000000000000000000000000000000000000000000000081565b6105776109ef565b73ffffffffffffffffffffffffffffffffffffffff16610595610320565b73ffffffffffffffffffffffffffffffffffffffff16146105f4576105b86109ef565b6040517f118cdaa70000000000000000000000000000000000000000000000000000000081526004016105eb9190610c15565b60405180910390fd5b565b60008060009054906101000a900473ffffffffffffffffffffffffffffffffffffffff169050816000806101000a81548173ffffffffffffffffffffffffffffffffffffffff021916908373ffffffffffffffffffffffffffffffffffffffff1602179055508173ffffffffffffffffffffffffffffffffffffffff168173ffffffffffffffffffffffffffffffffffffffff167f8be0079c531659141344cd1fd0a4f28419497f9722a3daafe3b4186f6b6457e060405160405180910390a35050565b60005b8484905081101561075e576107537f00000000000000000000000000000000000000000000000000000000000000008484848181106106ff576106fe61108c565b5b905060200201358787858181106107195761071861108c565b5b905060200201602081019061072e9190610e33565b73ffffffffffffffffffffffffffffffffffffffff166109f79092919063ffffffff16565b8060010190506106bd565b5050505050565b60008082606001602081019061077b9190610e33565b73ffffffffffffffffffffffffffffffffffffffff166370a08231306040518263ffffffff1660e01b81526004016107b39190610c15565b602060405180830381865afa1580156107d0573d6000803e3d6000fd5b505050506040513d601f19601f820116820180604052508101906107f49190610ec8565b9050826101c0013534101561083e576040517f08c379a000000000000000000000000000000000000000000000000000000000815260040161083590611107565b60405180910390fd5b6000836101c00135346108519190611156565b90507f000000000000000000000000000000000000000000000000000000000000000073ffffffffffffffffffffffffffffffffffffffff16633593564c828680600001906108a09190611199565b8880602001906108b091906111fc565b8a604001356040518763ffffffff1660e01b81526004016108d5959493929190611421565b6000604051808303818588803b1580156108ee57600080fd5b505af1158015610902573d6000803e3d6000fd5b5050505050600084606001602081019061091c9190610e33565b73ffffffffffffffffffffffffffffffffffffffff166370a08231306040518263ffffffff1660e01b81526004016109549190610c15565b602060405180830381865afa158015610971573d6000803e3d6000fd5b505050506040513d601f19601f820116820180604052508101906109959190610ec8565b90508281116109d9576040517f08c379a00000000000000000000000000000000000000000000000000000000081526004016109d0906114b6565b60405180910390fd5b82816109e59190611156565b9350505050919050565b600033905090565b610a71838473ffffffffffffffffffffffffffffffffffffffff1663a9059cbb8585604051602401610a2a9291906114d6565b604051602081830303815290604052915060e01b6020820180517bffffffffffffffffffffffffffffffffffffffffffffffffffffffff8381831617835250505050610a76565b505050565b600080602060008451602086016000885af180610a99576040513d6000823e3d81fd5b3d925060005191505060008214610ab4576001811415610ad0565b60008473ffffffffffffffffffffffffffffffffffffffff163b145b15610b1257836040517f5274afe7000000000000000000000000000000000000000000000000000000008152600401610b099190610c15565b60405180910390fd5b50505050565b600073ffffffffffffffffffffffffffffffffffffffff82169050919050565b6000819050919050565b6000610b5d610b58610b5384610b18565b610b38565b610b18565b9050919050565b6000610b6f82610b42565b9050919050565b6000610b8182610b64565b9050919050565b610b9181610b76565b82525050565b6000602082019050610bac6000830184610b88565b92915050565b6000819050919050565b610bc581610bb2565b82525050565b6000610bd682610b18565b9050919050565b610be681610bcb565b82525050565b6000604082019050610c016000830185610bbc565b610c0e6020830184610bdd565b9392505050565b6000602082019050610c2a6000830184610bdd565b92915050565b600080fd5b600080fd5b600080fd5b60006101e08284031215610c5657610c55610c3a565b5b81905092915050565b600080fd5b600080fd5b600080fd5b60008083601f840112610c8457610c83610c5f565b5b8235905067ffffffffffffffff811115610ca157610ca0610c64565b5b602083019150836020820283011115610cbd57610cbc610c69565b5b9250929050565b60008083601f840112610cda57610cd9610c5f565b5b8235905067ffffffffffffffff811115610cf757610cf6610c64565b5b602083019150836020820283011115610d1357610d12610c69565b5b9250929050565b600080600080600060608688031215610d3657610d35610c30565b5b600086013567ffffffffffffffff811115610d5457610d53610c35565b5b610d6088828901610c3f565b955050602086013567ffffffffffffffff811115610d8157610d80610c35565b5b610d8d88828901610c6e565b9450945050604086013567ffffffffffffffff811115610db057610daf610c35565b5b610dbc88828901610cc4565b92509250509295509295909350565b6000610dd682610b64565b9050919050565b610de681610dcb565b82525050565b6000602082019050610e016000830184610ddd565b92915050565b610e1081610bcb565b8114610e1b57600080fd5b50565b600081359050610e2d81610e07565b92915050565b600060208284031215610e4957610e48610c30565b5b6000610e5784828501610e1e565b91505092915050565b6000610e6b82610b64565b9050919050565b610e7b81610e60565b82525050565b6000602082019050610e966000830184610e72565b92915050565b610ea581610bb2565b8114610eb057600080fd5b50565b600081519050610ec281610e9c565b92915050565b600060208284031215610ede57610edd610c30565b5b6000610eec84828501610eb3565b91505092915050565b600081519050610f0481610e07565b92915050565b600060208284031215610f2057610f1f610c30565b5b6000610f2e84828501610ef5565b91505092915050565b600082825260208201905092915050565b7f4549502d37373032206f6e6c7900000000000000000000000000000000000000600082015250565b6000610f7e600d83610f37565b9150610f8982610f48565b602082019050919050565b60006020820190508181036000830152610fad81610f71565b9050919050565b7f6e6f207461726765740000000000000000000000000000000000000000000000600082015250565b6000610fea600983610f37565b9150610ff582610fb4565b602082019050919050565b6000602082019050818103600083015261101981610fdd565b9050919050565b7f6c656e206d69736d617463680000000000000000000000000000000000000000600082015250565b6000611056600c83610f37565b915061106182611020565b602082019050919050565b6000602082019050818103600083015261108581611049565b9050919050565b7f4e487b7100000000000000000000000000000000000000000000000000000000600052603260045260246000fd5b7f496e73756666696369656e74206574682066756e647300000000000000000000600082015250565b60006110f1601683610f37565b91506110fc826110bb565b602082019050919050565b60006020820190508181036000830152611120816110e4565b9050919050565b7f4e487b7100000000000000000000000000000000000000000000000000000000600052601160045260246000fd5b600061116182610bb2565b915061116c83610bb2565b925082820390508181111561118457611183611127565b5b92915050565b600080fd5b600080fd5b600080fd5b600080833560016020038436030381126111b6576111b561118a565b5b80840192508235915067ffffffffffffffff8211156111d8576111d761118f565b5b6020830192506001820236038313156111f4576111f3611194565b5b509250929050565b600080833560016020038436030381126112195761121861118a565b5b80840192508235915067ffffffffffffffff82111561123b5761123a61118f565b5b60208301925060208202360383131561125757611256611194565b5b509250929050565b600082825260208201905092915050565b82818337600083830152505050565b6000601f19601f8301169050919050565b600061129c838561125f565b93506112a9838584611270565b6112b28361127f565b840190509392505050565b600082825260208201905092915050565b6000819050919050565b600082825260208201905092915050565b60006112f583856112d8565b9350611302838584611270565b61130b8361127f565b840190509392505050565b60006113238484846112e9565b90509392505050565b600080fd5b600080fd5b600080fd5b6000808335600160200384360303811261135857611357611336565b5b83810192508235915060208301925067ffffffffffffffff8211156113805761137f61132c565b5b60018202360383131561139657611395611331565b5b509250929050565b6000602082019050919050565b60006113b783856112bd565b9350836020840285016113c9846112ce565b8060005b8781101561140f5784840389526113e4828461133b565b6113ef868284611316565b95506113fa8461139e565b935060208b019a5050506001810190506113cd565b50829750879450505050509392505050565b6000606082019050818103600083015261143c818789611290565b905081810360208301526114518185876113ab565b90506114606040830184610bbc565b9695505050505050565b7f6e6f206f75747075740000000000000000000000000000000000000000000000600082015250565b60006114a0600983610f37565b91506114ab8261146a565b602082019050919050565b600060208201905081810360008301526114cf81611493565b9050919050565b60006040820190506114eb6000830185610bdd565b6114f86020830184610bbc565b939250505056fea2646970667358221220bbde6ab8531c74a8da0be341f3727ee68fcd03f4bc0062746a05a6fd0ae29b6964736f6c63430008180033",
  "linkReferences": {},
  "deployedLinkReferences": {}
}